:020000040800F2
:1000000000280020FD130008491200084F120008C4
:10001000551200085B120008611200080000000081
:10002000000000000000000000000000671200084F
:1000300073120008000000007F1200088B120008F5
:10004000451400084514000845140008451400082C
:10005000451400084514000845140008451400081C
:10006000451400084514000845140008451400080C
:1000700045140008451400084514000845140008FC
:1000800045140008451400084514000845140008EC
:1000900045140008451400084514000845140008DC
:1000A00045140008451400084514000845140008CC
:1000B00099120008451400080000000045140008CB
:1000C000451400080000000000000000451400086E
:1000D000000000004514000845140008000000005E
:1000E00045140008451400084514000800000000ED
:1000F0000000000000000000000000000000000000
:0C01000000000000000000005FF808F1A3
:10010C0010B5054C237833B9044B13B10448AFF345
:10011C0000800123237010BD380000200000000077
:10012C00742A000808B5034B1BB103490348AFF30D
:10013C00008008BD000000003C000020742A00086C
:10014C0080B500AF1C4B1B78022B24D0022B31DC6A
:10015C00002B02D0012B0AD02CE0002000F096F8E6
:10016C000346002B21D0144B01221A701DE00020F5
:10017C0000F08CF80346002B03D10F4B00221A70B1
:10018C0015E0002000F09CF80346002B0FD00A4B22
:10019C0002221A700BE0002000F078F80346002BC6
:1001AC0007D1054B00221A7003E000BF02E000BF2C
:1001BC0000E000BF00BF80BD5400002090B583B0AC
:1001CC0000AF0023FB714AE0FA79FB792849895C7E
:1001DC00284AD154FB79284A52F82320FB79274925
:1001EC0031F81330FC791946104601F011FC034626
:1001FC001A461F4B1A55FB791D4AD25CFB791D49D7
:10020C00CB5C9A4205D1FA79FB791949895C1C4A75
:10021C00D154FB791A4AD35C002B14D1FB79194ABF
:10022C0032F81330632B09D8FB79164A32F81320B5
:10023C00013291B2134A22F813100DE0FB79124AE5
:10024C000121D15408E0FB790E4A002122F8131049
:10025C00FB790D4A0021D154FB790133FB71FB79F9
:10026C00022BB1D900BF00BF0C37BD4690BD00BFFB
:10027C005C00002060000020000000200C0000202A
:10028C0058000020680000206400002080B483B077
:10029C0000AF0346FB71FB79022B01D9002307E069
:1002AC00FB79064AD35C002B0CBF01230023DBB285
:1002BC0018460C37BD4680BC704700BF5800002064
:1002CC0080B483B000AF0346FB71FB79022B01D9DC
:1002DC00FF2307E0FB79064AD35C012B0CBF0123FB
:1002EC000023DBB218460C37BD4680BC704700BFFC
:1002FC006400002080B582B000AF78607B68032B6F
:10030C001FD07B68032B26DC7B68002B03D07B681B
:10031C00012B0BD01FE000220821114801F08FFBAC
:10032C00012210210E4801F08AFB15E00122082160
:10033C000B4801F084FB00221021094801F07FFBDF
:10034C000AE000220821064801F079FB0022102166
:10035C00034801F074FB00BF00BF0837BD4680BDE9
:10036C00000C014080B483B000AF78607B680D4A0C
:10037C0082FB03129210DB17D31A0B4A13607968B5
:10038C00084B83FB01239A10CB17D21A13469B0000
:10039C0013445B00CA1A044B5A6000BF0C37BD46AD
:1003AC0080BC7047676666667400002080B483B0BA
:1003BC0000AF78607B680D4A82FB03129210DB174A
:1003CC00D31A0B4A13607968084B83FB01239A10EC
:1003DC00CB17D21A13469B0013445B00CA1A044B6A
:1003EC005A6000BF0C37BD4680BC704767666666B6
:1003FC007C00002080B582B000AF78607B68012B58
:10040C0023D101220221C24801F019FB0022042150
:10041C00BF4801F014FB00220821BD4801F00FFB7E
:10042C0001221021BA4801F00AFB01222021B84810
:10043C0001F005FB01224021B54801F000FB01222F
:10044C008021B34801F0FBFA5EE17B68022B23D1DB
:10045C0000220221AE4801F0F2FA00220421AC483D
:10046C0001F0EDFA01220821A94801F0E8FA002276
:10047C001021A74801F0E3FA00222021A44801F042
:10048C00DEFA01224021A24801F0D9FA0022802193
:10049C009F4801F0D4FA37E17B68032B23D100226B
:1004AC0002219B4801F0CBFA00220421984801F06C
:1004BC00C6FA00220821964801F0C1FA0022102148
:1004CC00934801F0BCFA01222021914801F0B7FABF
:1004DC00012240218E4801F0B2FA002280218C4882
:1004EC0001F0ADFA10E17B68002B23D10022022130
:1004FC00874801F0A4FA00220421854801F09FFAF4
:10050C0000220821824801F09AFA0022102180482A
:10051C0001F095FA002220217D4801F090FA00228A
:10052C0040217B4801F08BFA01228021784801F0B0
:10053C0086FAE9E07B68042B23D10122022174485E
:10054C0001F07DFA00220421714801F078FA0022B2
:10055C0008216F4801F073FA012210216C4801F058
:10056C006EFA012220216A4801F069FA002240212A
:10057C00674801F064FA00228021654801F05FFAB7
:10058C00C2E07B68052B23D100220221604801F0D8
:10059C0056FA012204215E4801F051FA002208218A
:1005AC005B4801F04CFA00221021594801F047FA3F
:1005BC0001222021564801F042FA002240215448E1
:1005CC0001F03DFA00228021514801F038FA9BE0FD
:1005DC007B68062B23D1002202214D4801F02FFA13
:1005EC00012204214A4801F02AFA00220821484835
:1005FC0001F025FA00221021454801F020FA0022D2
:10060C002021434801F01BFA00224021404801F010
:10061C0016FA002280213E4801F011FA74E07B6842
:10062C00072B23D100220221394801F008FA0022BD
:10063C000421374801F003FA00220821344801F064
:10064C00FEF901221021324801F0F9F90122202192
:10065C002F4801F0F4F9012240212D4801F0EFF967
:10066C00012280212A4801F0EAF94DE07B68082B31
:10067C0023D100220221264801F0E1F900220421B5
:10068C00234801F0DCF900220821214801F0D7F9B8
:10069C00002210211E4801F0D2F9002220211C4812
:1006AC0001F0CDF900224021194801F0C8F90022CF
:1006BC008021174801F0C3F926E07B68092B23D170
:1006CC0000220221124801F0BAF90022042110483C
:1006DC0001F0B5F9002208210D4801F0B0F9002213
:1006EC0010210B4801F0ABF901222021084801F040
:1006FC00A6F900224021064801F0A1F90022802130
:10070C00034801F09CF900BF0837BD4680BD00BF0F
:10071C000008014080B582B000AF78607B68012B87
:10072C002AD101224FF48071CB4801F088F90022C4
:10073C004FF40071C84801F082F900224FF4806137
:10074C00C54801F07CF901224FF40061C24801F068
:10075C0076F901224FF48051BF4801F070F9012263
:10076C004FF40051BC4801F06AF901224FF480416A
:10077C00B94801F064F99FE17B68022B2AD1002271
:10078C004FF48071B44801F05AF900224FF4007113
:10079C00B14801F054F901224FF48061AE4801F0E8
:1007AC004EF900224FF40061AB4801F048F90022E9
:1007BC004FF48051A84801F042F901224FF4005146
:1007CC00A54801F03CF900224FF48041A24801F009
:1007DC0036F971E17B68032B2AD100224FF480712A
:1007EC009D4801F02CF900224FF400719A4801F059
:1007FC0026F900224FF48061974801F020F900227D
:10080C004FF40061944801F01AF901224FF4805121
:10081C00914801F014F901224FF400518E4801F077
:10082C000EF900224FF480418B4801F008F943E1A6
:10083C007B68002B2AD100224FF48071864801F08E
:10084C00FEF800224FF40071834801F0F8F8002202
:10085C004FF48061804801F0F2F800224FF40061FF
:10086C007D4801F0ECF800224FF480517A4801F0F9
:10087C00E6F800224FF40051774801F0E0F801222D
:10088C004FF48041744801F0DAF815E17B68042BD1
:10089C002AD101224FF480716F4801F0D0F8002268
:1008AC004FF400716C4801F0CAF800224FF48061DB
:1008BC00694801F0C4F801224FF40061664801F068
:1008CC00BEF801224FF48051634801F0B8F80022C1
:1008DC004FF40051604801F0B2F800224FF480410F
:1008EC005D4801F0ACF8E7E07B68052B2AD10022CB
:1008FC004FF48071584801F0A2F801224FF40071B6
:10090C00554801F09CF800224FF48061524801F0E8
:10091C0096F800224FF400614F4801F090F8012244
:10092C004FF480514C4801F08AF800224FF40051EA
:10093C00494801F084F800224FF48041464801F008
:10094C007EF8B9E07B68062B2AD100224FF4807127
:10095C00414801F074F801224FF400713E4801F057
:10096C006EF800224FF480613B4801F068F80022D9
:10097C004FF40061384801F062F800224FF48051C6
:10098C00354801F05CF800224FF40051324801F078
:10099C0056F800224FF480412F4801F050F88BE0BC
:1009AC007B68072B2AD100224FF480712A4801F072
:1009BC0046F800224FF40071274801F040F800225D
:1009CC004FF48061244801F03AF801224FF40061A1
:1009DC00214801F034F801224FF480511E4801F0F7
:1009EC002EF801224FF400511B4801F028F8012287
:1009FC004FF48041184801F022F85DE07B68082B29
:100A0C002CD100224FF48071134801F018F8002209
:100A1C004FF40071104801F012F800224FF480617D
:100A2C000D4801F00CF800224FF400610A4801F067
:100A3C0006F800224FF48051074801F000F800221C
:100A4C004FF40051044800F0FAFF00224FF48041AB
:100A5C00014800F0F4FF2FE0000801407B68092BEF
:100A6C002AD100224FF48071154800F0E8FF0022D3
:100A7C004FF40071124800F0E2FF00224FF4806145
:100A8C000F4800F0DCFF00224FF400610C4800F02E
:100A9C00D6FF01224FF48051094800F0D0FF00220C
:100AAC004FF40051064800F0CAFF00224FF4804179
:100ABC00034800F0C4FF00BF0837BD4680BD00BF2F
:100ACC000008014080B500AF00F0B8FC00F070FAEF
:100ADC0000F0F6FA00F0A8FA9F4801F00DFC0A208D
:100AEC0000F0E4FB642000F0FBFB4FF47A7000F0A4
:100AFC0011FC9A4B1A689A4B1B681A44994B1B6849
:100B0C001344994A1360984B1B68984A1360934B93
:100B1C001B68974A1360934B1B68964A1360904B63
:100B2C001B68954A1360954B1B68013B032B00F225
:100B3C00208201A252F823F0550B0008A50D0008E5
:100B4C00450E0008E30E00088D4B1B68012B40F08E
:100B5C00F8804FF47A7000F0DDFB4FF400418948C7
:100B6C0000F085FF7F4B1A687D4B1B681A447E4B47
:100B7C001B689A4216DB7A4B1B68013B7C4A13605C
:100B8C0000224FF48051804800F059FF01224FF4AD
:100B9C0000617D4800F053FF01224FF480617A48D8
:100BAC0000F04DFF6D4B1A686D4B1B681A446F4B70
:100BBC001B689A4216DB694B1B68013B6D4A13603C
:100BCC0000224FF48041704800F039FF01224FF4AD
:100BDC0000416D4800F033FF01224FF400516A4888
:100BEC0000F02DFF604B1A685E4B1B689A4216DCB6
:100BFC005C4B1B68013B5E4A136001224FF4805131
:100C0C00614800F01CFF01224FF400615E4800F0C7
:100C1C0016FF00224FF480615B4800F010FF534B2D
:100C2C001A684F4B1B689A4216DC4D4B1B68013BF4
:100C3C00504A136001224FF48041534800F0FFFEEC
:100C4C0000224FF40041504800F0F9FE01224FF40D
:100C5C0000514D4800F0F3FE434B1B68002B20DC89
:100C6C003E4B1B68013B424A13603C4B1A683D4BA0
:100C7C001B681A443A4B1B6813443B4A136001220D
:100C8C004FF48051404800F0DAFE00224FF400612E
:100C9C003D4800F0D4FE01224FF480613A4800F048
:100CAC00CEFE324B1B68002B20DC2E4B1B68013B0D
:100CBC00304A1360294B1A682A4B1B681A44284B7C
:100CCC001B681344294A136001224FF480412E48BB
:100CDC0000F0B5FE01224FF400412B4800F0AFFEAE
:100CEC0000224FF40051284800F0A9FE1E4B1B684F
:100CFC00013B1D4A13601D4B1B68013B1B4A1360D3
:100D0C000320FFF7F7FA1A4B1B681846FFF72AFB6C
:100D1C00184B1B681846FFF749FB1C4B5B681846C1
:100D2C00FFF768FB1A4B5B681846FFF7F3FC104B98
:100D3C001B68013B0E4A13600E4B1B68013B0D4AAE
:100D4C001360144B1B68012B40F015810A2000F036
:100D5C00ADFAFFF7F5F90EE1AC0000201800002009
:100D6C00200000201C0000209C000020A00000207F
:100D7C00A4000020A8000020F40000201400002093
:100D8C009800002000080140000C01407400002075
:100D9C007C000020900000207B4B1B68012B09D1AC
:100DAC000A2000F083FAFFF7CBF9784B1B68184642
:100DBC00FFF7B0FC764B1B68012B40F0DE80642003
:100DCC0000F08EFA734B1B68002B09D14FF4806135
:100DDC00714800F04CFE4FF400516F4800F047FE94
:100DEC006E4B1B681846FFF7BDFA6D4B1B68184617
:100DFC00FFF780FA6A4B1B686A4A52F82330184690
:100E0C00FFF7F8FA664B1B680133654A1360644BB5
:100E1C001B68012B02DD624B00221A605D4B1B68C4
:100E2C00013B5C4A13605B4B1B68002B00F3A580F5
:100E3C00584B05221A60A0E0534B1B68012B09D1BB
:100E4C000A2000F033FAFFF77BF9504B1B68184669
:100E5C00FFF760FC4E4B1B68012B40F09080642028
:100E6C0000F03EFA4B4B1B68002B09D14FF480511C
:100E7C00494800F0FCFD4FF40041474800F0F7FDF5
:100E8C00494B1B681846FFF76DFA454B1B68184613
:100E9C00FFF730FA424B1B68424A52F8233018468F
:100EAC00FFF7A8FA3E4B1B6801333D4A13603C4BDD
:100EBC001B68012B02DD3A4B00221A60354B1B6874
:100ECC00013B344A1360334B1B68002B57DC314B0E
:100EDC0005221A6053E02C4B1B68012B09D10A2008
:100EEC0000F0E4F9FFF72CF9284B1B681846FFF7C4
:100EFC0011FC274B1B68012B43D1642000F0F0F947
:100F0C00244B1B68002B09D14FF40061224800F0E0
:100F1C00AEFD4FF48041204800F0A9FD234B1B6827
:100F2C001846FFF71FFA1E4B1B681846FFF7E2F92D
:100F3C001B4B1B681B4A52F823301846FFF75AFA12
:100F4C00174B1B680133164A1360154B1B68012B9A
:100F5C0002DD134B00221A600E4B1B68013B0D4A3D
:100F6C0013600C4B1B68002B0BDC0A4B05221A6020
:100F7C0007E000BFD7E500BFD5E500BFD3E500BF54
:100F8C00D1E500BFCFE500BF900000201400002089
:100F9C009400002024000020000C01401C000020C4
:100FAC007000002074000020200000201800002099
:100FBC0080B590B000AF07F1180328220021184625
:100FCC0001F04AFD3B1D00221A605A609A60DA60FB
:100FDC001A610223BB610123BB621023FB62002355
:100FEC007B6307F11803184600F05AFD0346002BEB
:100FFC0001D000F0C7F80F237B600023BB600023F7
:10100C00FB6000233B6100237B613B1D00211846E4
:10101C0000F0C6FF0346002B01D000F0B3F800BF70
:10102C004037BD4680BD000080B586B000AF07F1EB
:10103C00080300221A605A609A60DA603B4600226C
:10104C001A605A601D4B4FF080421A601B4B41F6E0
:10105C003F725A60194B00229A60184B0922DA60D1
:10106C00164B00221A61154B00229A61134801F0AD
:10107C00F3F80346002B01D000F084F84FF48053B2
:10108C00BB6007F1080319460C4801F071FA0346DE
:10109C00002B01D000F076F800233B6000237B602E
:1010AC003B461946054801F049FC0346002B01D08C
:1010BC0000F068F800BF1837BD4680BDAC000020BA
:1010CC0080B586B000AF07F1080300221A605A60A1
:1010DC009A60DA60284B9B69274A43F004039361BA
:1010EC00254B9B6903F004037B607B68224B9B6957
:1010FC00214A43F0080393611F4B9B6903F00803DB
:10110C003B603B6800224FF6FE711C4800F097FCD8
:10111C0000224FF618411A4800F091FC4FF6FE736E
:10112C00BB600123FB6000233B6102237B6107F161
:10113C0008031946114800F0F1FA0723BB6000239D
:10114C00FB6000233B6107F1080319460C4800F0D3
:10115C00E5FA4FF61843BB600123FB6000233B61AB
:10116C0002237B6107F108031946054800F0D6FA03
:10117C0000BF1837BD4680BD00100240000801407A
:10118C00000C014080B400AF72B600BFFEE7000057
:10119C0080B485B000AF154B9B69144A43F0010332
:1011AC009361124B9B6903F00103BB60BB680F4B4F
:1011BC00DB690E4A43F08053D3610C4BDB6903F0BF
:1011CC0080537B607B680A4B5B68FB60FB6823F099
:1011DC00E063FB60FB6843F08063FB60044AFB68E0
:1011EC00536000BF1437BD4680BC704700100240EE
:1011FC000000014080B584B000AF78607B681B684C
:10120C00B3F1804F13D10C4BDB690B4A43F0010354
:10121C00D361094BDB6903F00103FB60FB6800221F
:10122C0000211C2000F043FA1C2000F05CFA00BFE7
:10123C001037BD4680BD00BF0010024080B400AF27
:10124C00FEE780B400AFFEE780B400AFFEE780B4E9
:10125C0000AFFEE780B400AFFEE780B400AF00BF84
:10126C00BD4680BC704780B400AF00BFBD4680BC9B
:10127C00704780B400AF00BFBD4680BC704780B5DE
:10128C0000AF00F021F900BF80BD000080B500AFB9
:10129C00024801F07DF800BF80BD00BFAC0000200B
:1012AC0080B400AF00BFBD4680BC704780B483B033
:1012BC0000AF7860074B1B687A6892FBF3F3064A21
:1012CC001360064B00221A6000BF0C37BD4680BC71
:1012DC00704700BF2C0000208400002090000020EC
:1012EC0080B483B000AF7860074B1B687A6892FBC0
:1012FC00F3F3064A1360064B00221A6000BF0C374A
:10130C00BD4680BC704700BF2C0000208800002028
:10131C009400002080B483B000AF7860074B1B684A
:10132C007A6892FBF3F3064A1360064B00221A60AC
:10133C0000BF0C37BD4680BC704700BF2C0000209E
:10134C008C0000209800002080B400AF194B1B6863
:10135C00002B0BDD174B1B68013B164A1360154B1A
:10136C001B68002B02D1144B01221A60134B1B6813
:10137C00002B0BDD114B1B68013B104A13600F4B0C
:10138C001B68002B02D10E4B01221A600D4B1B68FF
:10139C00002B0BDD0B4B1B68013B0A4A1360094BFE
:1013AC001B68002B02D1084B01221A6000BFBD46FE
:1013BC0080BC704784000020900000208800002032
:1013CC00940000208C0000209800002080B582B092
:1013DC0000AF7860FFF7B8FF7B681B68B3F1804FF4
:1013EC0001D1FEF7EBFE00BF0837BD4680BD000003
:1013FC00FFF756FF0B480C490C4A002302E0D45867
:10140C00C4500433C4188C42F9D3094A094C002344
:10141C0001E013600432A242FBD301F0F9FAFFF7AA
:10142C0051FB70470000002038000020B82A00084B
:10143C0038000020FC000020FEE7000080B500AF63
:10144C00084B1B68074A43F010031360032000F09D
:10145C0023F90F2000F008F8FFF79AFE0023184636
:10146C0080BD00BF0020024080B582B000AF786024
:10147C00124B1A68124B1B7819464FF47A73B3FB54
:10148C00F1F3B2FBF3F3184600F03BF90346002BE3
:10149C0001D001230EE07B680F2B0AD8002279685B
:1014AC004FF0FF3000F003F9064A7B68136000230D
:1014BC0000E0012318460837BD4680BD28000020F7
:1014CC00340000203000002080B400AF054B1B78A6
:1014DC001A46054B1B681344034A136000BFBD46F4
:1014EC0080BC704734000020F800002080B400AFAE
:1014FC00024B1B681846BD4680BC7047F8000020A4
:10150C0080B485B000AF78607B6803F00703FB60A4
:10151C000C4BDB68BB60BA684FF6FF031340BB6033
:10152C00FB681A02BB68134343F0BF6343F40033F8
:10153C00BB60044ABB68D36000BF1437BD4680BC97
:10154C00704700BF00ED00E080B400AF044BDB68D7
:10155C001B0A03F007031846BD4680BC704700BF4A
:10156C0000ED00E080B483B000AF0346FB7197F947
:10157C000730002B0BDBFB7903F01F02064997F9B0
:10158C0007305B09012000FA02F241F8232000BF6A
:10159C000C37BD4680BC704700E100E080B483B0DE
:1015AC0000AF03463960FB7197F90730002B0ADB5B
:1015BC003B68DAB20C4997F907301201D2B20B44EE
:1015CC0083F800230AE03B68DAB20849FB7903F0A0
:1015DC000F03043B1201D2B20B441A7600BF0C3736
:1015EC00BD4680BC704700BF00E100E000ED00E0AC
:1015FC0080B489B000AFF860B9607A60FB6803F022
:10160C000703FB61FB69C3F10703042B28BF042309
:10161C00BB61FB690433062B02D9FB69033B00E079
:10162C0000237B614FF0FF32BB6902FA03F3DA430C
:10163C00BB681A407B699A404FF0FF317B6901FA15
:10164C0003F3D9437B680B40134318462437BD463C
:10165C0080BC704780B582B000AF78607B68013B7E
:10166C00B3F1807F01D301230FE00A4A7B68013B71
:10167C0053600F214FF0FF30FFF790FF054B002216
:10168C009A60044B07221A60002318460837BD469F
:10169C0080BD00BF10E000E080B582B000AF786084
:1016AC007868FFF72DFF00BF0837BD4680BD80B5B9
:1016BC0086B000AF0346B9607A60FB7300237B6190
:1016CC00FFF742FF78617A68B9687869FFF790FF95
:1016DC00024697F90F3011461846FFF75FFF00BF1F
:1016EC001837BD4680BD80B582B000AF0346FB7194
:1016FC0097F907301846FFF735FF00BF0837BD468E
:10170C0080BD80B582B000AF78607868FFF7A2FF2B
:10171C00034618460837BD4680BD000080B48BB028
:10172C0000AF7860396000237B6200233B6248E1A4
:10173C0001227B6A02FA03F3FB613B681B68FA69BE
:10174C001340BB61BA69FB699A4240F037813B6830
:10175C005B68A34A93425ED0A14A934275D8A14AD2
:10176C00934258D09F4A93426FD89F4A934252D08B
:10177C009D4A934269D89D4A93424CD09B4A9342CE
:10178C0063D89B4A934246D0994A93425DD8122B18
:10179C002AD8122B59D801A252F823F0231800088A
:1017AC00FD1700080F1800085118000857180008FA
:1017BC005718000857180008571800085718000841
:1017CC005718000857180008571800085718000831
:1017DC005718000857180008571800085718000821
:1017EC000518000819180008824A934213D02CE0FF
:1017FC003B68DB683B6229E03B68DB6804333B6297
:10180C0024E03B68DB6808333B621FE03B68DB6825
:10181C000C333B621AE03B689B68002B02D104231B
:10182C003B6213E03B689B68012B05D108233B62AC
:10183C007B68FA691A6109E008233B627B68FA69E4
:10184C005A6103E000233B6200E000BFBB69FF2B41
:10185C0001D87B6801E07B6804337B61BB69FF2B9B
:10186C0002D87B6A9B0002E07B6A083B9B003B61D1
:10187C007B691A680F213B6901FA03F3DB431A40B9
:10188C00396A3B6901FA03F31A437B691A603B68B6
:10189C005B6803F08053002B00F09080564B9B69E3
:1018AC00554A43F001039361534B9B6903F00103C9
:1018BC00BB60BB68514A7B6A9B08023352F82330E9
:1018CC00FB607B6A03F003039B000F2202FA03F315
:1018DC00DB43FA681340FB607B68494A93420DD0A6
:1018EC007B68484A934207D07B68474A934201D1B0
:1018FC00022304E0032302E0012300E000237A6AC0
:10190C0002F0030292009340FA681343FB603B49D8
:10191C007B6A9B080233FA6841F823203B685B68BA
:10192C0003F48013002B06D0384B9A683749BB69F7
:10193C0013438B6006E0354B9A68BB69DB43334934
:10194C0013408B603B685B6803F40013002B06D0DC
:10195C002E4BDA682D49BB691343CB6006E02B4B49
:10196C00DA68BB69DB4329491340CB603B685B6891
:10197C0003F40033002B06D0244B5A682349BB696F
:10198C0013434B6006E0214B5A68BB69DB431F498C
:10199C0013404B603B685B6803F48033002B06D02C
:1019AC001A4B1A681949BB6913430B6006E0174BB5
:1019BC001A68BB69DB43154913400B607B6A013322
:1019CC007B623B681A687B6A22FA03F3002B7FF474
:1019DC00AFAE00BF00BF2C37BD4680BC704700BF08
:1019EC000000321000003110000022100000211005
:1019FC000000121000001110001002400000014005
:101A0C0000080140000C014000100140000401409E
:101A1C0080B485B000AF78600B467B807B689A6899
:101A2C007B881340002B02D00123FB7301E00023C1
:101A3C00FB73FB7B18461437BD4680BC704780B4E3
:101A4C0083B000AF78600B467B8013467B707B784D
:101A5C00002B03D07A887B681A6103E07B881A0418
:101A6C007B681A6100BF0C37BD4680BC704780B4E0
:101A7C0085B000AF78600B467B807B68DB68FB60D1
:101A8C007A88FB6813401A04FB68D9437B880B40A7
:101A9C001A437B681A6100BF1437BD4680BC70477F
:101AAC0080B586B000AF78607B68002B01D1012334
:101ABC006CE27B681B6803F00103002B00F087804D
:101ACC00924B5B6803F00C03042B0CD08F4B5B68C0
:101ADC0003F00C03082B12D18C4B5B6803F480339E
:101AEC00B3F5803F0BD1894B1B6803F40033002BFB
:101AFC006CD07B685B68002B68D1012346E27B6865
:101B0C005B68B3F5803F06D1804B1B687F4A43F47A
:101B1C00803313602EE07B685B68002B0CD17B4B11
:101B2C001B687A4A23F480331360784B1B68774A1E
:101B3C0023F4802313601DE07B685B68B3F5A02F52
:101B4C000CD1724B1B68714A43F4802313606F4BAA
:101B5C001B686E4A43F4803313600BE06B4B1B68BD
:101B6C006A4A23F480331360684B1B68674A23F47A
:101B7C00802313607B685B68002B13D0FFF7B6FCE7
:101B8C00386108E0FFF7B2FC02463B69D31A642BBC
:101B9C0001D90323FAE15D4B1B6803F40033002BDE
:101BAC00F0D014E0FFF7A2FC386108E0FFF79EFCD0
:101BBC0002463B69D31A642B01D90323E6E1534B4C
:101BCC001B6803F40033002BF0D100E000BF7B68EE
:101BDC001B6803F00203002B63D04C4B5B6803F0D3
:101BEC000C03002B0BD0494B5B6803F00C03082B48
:101BFC001CD1464B5B6803F48033002B16D1434B4E
:101C0C001B6803F00203002B05D07B681B69012BBA
:101C1C0001D00123BAE13D4B1B6823F0F8027B682D
:101C2C005B69DB00394913430B603AE07B681B6945
:101C3C00002B20D0364B01221A60FFF757FC38617D
:101C4C0008E0FFF753FC02463B69D31A022B01D97B
:101C5C0003239BE12D4B1B6803F00203002BF0D0F8
:101C6C002A4B1B6823F0F8027B685B69DB00274971
:101C7C0013430B6015E0264B00221A60FFF736FC6D
:101C8C00386108E0FFF732FC02463B69D31A022B9D
:101C9C0001D903237AE11D4B1B6803F00203002BCF
:101CAC00F0D17B681B6803F00803002B3AD07B68EB
:101CBC009B69002B19D0174B01221A60FFF716FCF9
:101CCC00386108E0FFF712FC02463B69D31A022B7D
:101CDC0001D903235AE10D4B5B6A03F00203002B7D
:101CEC00F0D0012000F09AFA1CE00A4B00221A6096
:101CFC00FFF7FCFB38610FE0FFF7F8FB02463B698E
:101D0C00D31A022B08D9032340E100BF0010024074
:101D1C0000004242800442429E4B5B6A03F0020385
:101D2C00002BE9D17B681B6803F00403002B00F047
:101D3C00A6800023FB75974BDB6903F08053002BC7
:101D4C000DD1944BDB69934A43F08053D361914B93
:101D5C00DB6903F08053BB60BB680123FB758E4BC2
:101D6C001B6803F48073002B18D18B4B1B688A4AB9
:101D7C0043F480731360FFF7B9FB386108E0FFF799
:101D8C00B5FB02463B69D31A642B01D90323FDE052
:101D9C00814B1B6803F48073002BF0D07B68DB68ED
:101DAC00012B06D17B4B1B6A7A4A43F00103136269
:101DBC002DE07B68DB68002B0CD1764B1B6A754AD7
:101DCC0023F001031362734B1B6A724A23F0040362
:101DDC0013621CE07B68DB68052B0CD16D4B1B6A16
:101DEC006C4A43F0040313626A4B1B6A694A43F062
:101DFC00010313620BE0674B1B6A664A23F0010375
:101E0C001362644B1B6A634A23F0040313627B68FE
:101E1C00DB68002B15D0FFF769FB38610AE0FFF790
:101E2C0065FB02463B69D31A41F28832934201D9D1
:101E3C000323ABE0574B1B6A03F00203002BEED0DD
:101E4C0014E0FFF753FB38610AE0FFF74FFB024643
:101E5C003B69D31A41F28832934201D9032395E0AE
:101E6C004C4B1B6A03F00203002BEED1FB7D012BC4
:101E7C0005D1484BDB69474A23F08053D3617B681B
:101E8C00DB69002B00F08180424B5B6803F00C0394
:101E9C00082B61D07B68DB69022B46D13F4B0022BB
:101EAC001A60FFF723FB386108E0FFF71FFB0246BF
:101EBC003B69D31A022B01D9032367E0354B1B680E
:101ECC0003F00073002BF0D17B681B6AB3F5803FE5
:101EDC0008D1304B5B6823F400327B689B682D493A
:101EEC0013434B602B4B5B6823F474127B68196AA9
:101EFC007B685B6A0B43274913434B60274B0122DA
:101F0C001A60FFF7F3FA386108E0FFF7EFFA0246C0
:101F1C003B69D31A022B01D9032337E01D4B1B68F5
:101F2C0003F00073002BF0D02FE01C4B00221A6042
:101F3C00FFF7DCFA386108E0FFF7D8FA02463B6994
:101F4C00D31A022B01D9032320E0124B1B6803F098
:101F5C000073002BF0D118E07B68DB69012B01D1F9
:101F6C00012313E00B4B5B68FB60FB6803F48032CE
:101F7C007B681B6A9A4206D1FB6803F470127B687B
:101F8C005B6A9A4201D0012300E0002318461837FF
:101F9C00BD4680BD0010024000700040600042420F
:101FAC0080B584B000AF786039607B68002B01D1BC
:101FBC000123D0E06A4B1B6803F007033A689A428E
:101FCC0010D9674B1B6823F0070265493B68134324
:101FDC000B60634B1B6803F007033A689A4201D00D
:101FEC000123B8E07B681B6803F00203002B20D0B0
:101FFC007B681B6803F00403002B05D0594B5B680E
:10200C00584A43F4E06353607B681B6803F0080391
:10201C00002B05D0534B5B68524A43F4605353601A
:10202C00504B5B6823F0F0027B689B684D4913436F
:10203C004B607B681B6803F00103002B40D07B686E
:10204C005B68012B07D1474B1B6803F40033002B53
:10205C0015D101237FE07B685B68022B07D1414BD4
:10206C001B6803F00073002B09D1012373E03D4B77
:10207C001B6803F00203002B01D101236BE0394BE9
:10208C005B6823F003027B685B68364913434B6043
:10209C00FFF72CFAF8600AE0FFF728FA0246FB6813
:1020AC00D31A41F28832934201D9032353E02D4BCA
:1020BC005B6803F00C027B685B689B009A42EBD177
:1020CC00274B1B6803F007033A689A4210D2244B43
:1020DC001B6823F0070222493B6813430B60204B1B
:1020EC001B6803F007033A689A4201D0012332E0DF
:1020FC007B681B6803F00403002B08D0194B5B684A
:10210C0023F4E0627B68DB68164913434B607B6801
:10211C001B6803F00803002B09D0124B5B6823F4F7
:10212C0060527B681B69DB000E4913434B6000F067
:10213C0021F802460B4B5B681B0903F00F030A499D
:10214C00CB5C22FA03F3094A1360094B1B6818464F
:10215C00FFF78AF9002318461037BD4680BD00BF33
:10216C0000200240001002408C2A000828000020A9
:10217C003000002080B487B000AF0023FB60002348
:10218C00BB6000237B6100237B6000233B611E4B03
:10219C005B68FB60FB6803F00C03042B02D0082B7C
:1021AC0003D027E0194B3B6127E0FB689B0C03F045
:1021BC000F03174AD35C7B60FB6803F48033002B5E
:1021CC0010D0114B5B685B0C03F00103114AD35C1C
:1021DC00BB607B680D4A02FB03F2BB68B2FBF3F3F6
:1021EC007B6104E07B680C4A02FB03F37B617B6937
:1021FC003B6102E0054B3B6100BF3B6918461C3755
:10220C00BD4680BC704700BF0010024000127A002F
:10221C009C2A0008AC2A000800093D0080B485B057
:10222C0000AF78600A4B1B680A4AA2FB03235B0AC7
:10223C007A6802FB03F3FB6000BFFB685A1EFA606E
:10224C00002BF9D100BF00BF1437BD4680BC7047CE
:10225C0028000020D34D621080B582B000AF7860AA
:10226C007B68002B01D1012341E07B6893F83D3062
:10227C00DBB2002B06D17B68002283F83C20786807
:10228C00FEF7B8FF7B68022283F83D207B681A6852
:10229C007B6804331946104600F056FA7B6801221D
:1022AC0083F846207B68012283F83E207B6801225C
:1022BC0083F83F207B68012283F840207B68012251
:1022CC0083F841207B68012283F842207B6801223D
:1022DC0083F843207B68012283F844207B68012229
:1022EC0083F845207B68012283F83D2000231846A3
:1022FC000837BD4680BD000080B485B000AF786063
:10230C007B6893F83D30DBB2012B01D0012335E023
:10231C007B68022283F83D207B681B68DA687B6847
:10232C001B6842F00102DA607B681B68164A934214
:10233C0009D07B681B68B3F1804F04D07B681B68A5
:10234C00124A934211D17B681B689B6803F0070308
:10235C00FB60FB68062B10D07B681B681A687B68D7
:10236C001B6842F001021A6007E07B681B681A6860
:10237C007B681B6842F001021A6000231846143770
:10238C00BD4680BC704700BF002C014000040040DB
:10239C0080B584B000AF78607B681B68DB68FB603D
:1023AC007B681B681B69BB60BB6803F00203002BD6
:1023BC0020D0FB6803F00203002B1BD07B681B684A
:1023CC006FF002021A617B6801221A777B681B6826
:1023DC009B6903F00303002B03D0786800F098F995
:1023EC0005E0786800F08BF9786800F09AF97B6862
:1023FC0000221A77BB6803F00403002B20D0FB6883
:10240C0003F00403002B1BD07B681B686FF00402E5
:10241C001A617B6802221A777B681B689B6903F43C
:10242C004073002B03D0786800F072F905E07868EF
:10243C0000F065F9786800F074F97B6800221A776F
:10244C00BB6803F00803002B20D0FB6803F00803E3
:10245C00002B1BD07B681B686FF008021A617B682D
:10246C0004221A777B681B68DB6903F00303002BDB
:10247C0003D0786800F04CF905E0786800F03FF97B
:10248C00786800F04EF97B6800221A77BB6803F07D
:10249C001003002B20D0FB6803F01003002B1BD083
:1024AC007B681B686FF010021A617B6808221A7730
:1024BC007B681B68DB6903F44073002B03D07868DE
:1024CC0000F026F905E0786800F019F9786800F05A
:1024DC0028F97B6800221A77BB6803F00103002BF4
:1024EC000CD0FB6803F00103002B07D07B681B6842
:1024FC006FF001021A617868FEF768FFBB6803F0A1
:10250C008003002B0CD0FB6803F08003002B07D05A
:10251C007B681B686FF080021A61786800F06FFAB4
:10252C00BB6803F04003002B0CD0FB6803F04003A6
:10253C00002B07D07B681B686FF040021A6178682B
:10254C0000F0F8F8BB6803F02003002B0CD0FB68FC
:10255C0003F02003002B07D07B681B686FF0200270
:10256C001A61786800F042FA00BF1037BD4680BD92
:10257C0080B584B000AF786039600023FB737B6852
:10258C0093F83C30012B01D10223B4E07B6801228B
:10259C0083F83C207B68022283F83D207B681B6813
:1025AC009B68BB60BB6823F07703BB60BB6823F4FC
:1025BC007F43BB607B681B68BA689A603B681B688A
:1025CC00B3F5005F3ED0B3F5005F00F28780B3F542
:1025DC00805F00F08680B3F5805F7FD8702B1AD0B7
:1025EC00702B7BD8602B50D0602B77D8502B3CD0E5
:1025FC00502B73D8402B58D0402B6FD8302B64D035
:10260C00302B6BD8202B60D0202B67D8002B5CD0C4
:10261C00102B5AD062E07B6818683B6899683B685D
:10262C005A683B68DB6800F06AF97B681B689B683A
:10263C00BB60BB6843F07703BB607B681B68BA6800
:10264C009A604FE07B6818683B6899683B685A68E9
:10265C003B68DB6800F053F97B681B689A687B6801
:10266C001B6842F480429A603CE07B6818683B68C7
:10267C0059683B68DB681A4600F0CAF87B681B682F
:10268C005021184600F021F92CE07B6818683B6853
:10269C0059683B68DB681A4600F0E8F87B681B68F1
:1026AC006021184600F011F91CE07B6818683B6843
:1026BC0059683B68DB681A4600F0AAF87B681B680F
:1026CC004021184600F001F90CE07B681A683B6861
:1026DC001B681946104600F0F8F803E00123FB7361
:1026EC0000E000BF7B68012283F83D207B6800225C
:1026FC0083F83C20FB7B18461037BD4680BD80B468
:10270C0083B000AF786000BF0C37BD4680BC70470B
:10271C0080B483B000AF786000BF0C37BD4680BC7E
:10272C00704780B483B000AF786000BF0C37BD46F3
:10273C0080BC704780B483B000AF786000BF0C37AA
:10274C00BD4680BC7047000080B485B000AF786097
:10275C0039607B681B68FB607B682B4A934207D00F
:10276C007B68B3F1804F03D07B68284A934208D131
:10277C00FB6823F07003FB603B685B68FA681343EB
:10278C00FB607B68204A934207D07B68B3F1804F93
:10279C0003D07B681D4A934208D1FB6823F4407335
:1027AC00FB603B68DB68FA681343FB60FB6823F053
:1027BC0080023B685B691343FB607B68FA681A60B4
:1027CC003B689A687B68DA623B681A687B689A6235
:1027DC007B680D4A934203D13B681A697B681A6384
:1027EC007B6801225A617B681B6903F00103002B93
:1027FC0005D07B681B6923F001027B681A6100BF5E
:10280C001437BD4680BC7047002C014000040040CA
:10281C0080B487B000AFF860B9607A60FB681B6A5F
:10282C007B61FB681B6A23F00102FB681A62FB6880
:10283C009B693B613B6923F0F0033B617B681B01A7
:10284C003A6913433B617B6923F00A037B617A6924
:10285C00BB6813437B61FB683A699A61FB687A69D0
:10286C001A6200BF1C37BD4680BC704780B487B06D
:10287C0000AFF860B9607A60FB681B6A7B61FB682B
:10288C001B6A23F01002FB681A62FB689B693B61B0
:10289C003B6923F470433B617B681B033A69134328
:1028AC003B617B6923F0A0037B61BB681B017A69E8
:1028BC0013437B61FB683A699A61FB687A691A6217
:1028CC0000BF1C37BD4680BC704780B485B000AFDC
:1028DC00786039607B689B68FB60FB6823F0700351
:1028EC00FB603A68FB68134343F00703FB607B68AB
:1028FC00FA689A6000BF1437BD4680BC704780B43C
:10290C0087B000AFF860B9607A603B60FB689B6889
:10291C007B617B6923F47F437B613B681A027B6894
:10292C001A43BB6813437A6913437B61FB687A696A
:10293C009A6000BF1C37BD4680BC704780B485B020
:10294C0000AF786039607B6893F83C30012B01D183
:10295C00022341E07B68012283F83C207B68022241
:10296C0083F83D207B681B685B68FB607B681B6899
:10297C009B68BB60FB6823F07003FB603B681B68C3
:10298C00FA681343FB607B681B68FA685A607B68C3
:10299C001B68144A934209D07B681B68B3F1804FC3
:1029AC0004D07B681B68104A93420CD1BB6823F09F
:1029BC008003BB603B685B68BA681343BB607B6891
:1029CC001B68BA689A607B68012283F83D207B689B
:1029DC00002283F83C20002318461437BD4680BCE7
:1029EC00704700BF002C01400004004080B483B04D
:1029FC0000AF786000BF0C37BD4680BC704780B418
:102A0C0083B000AF786000BF0C37BD4680BC704708
:102A1C0070B500260C4D0D4C641BA410A64209D1B8
:102A2C0000F022F800260A4D0A4C641BA410A642A2
:102A3C0005D170BD55F8043B98470136EEE755F8C3
:102A4C00043B98470136F2E7B02A0008B02A000888
:102A5C00B02A0008B42A000803460244934200D16D
:102A6C00704703F8011BF9E7F8B500BFF8BC08BCC8
:102A7C009E467047F8B500BFF8BC08BC9E46704730
:102A8C000000000000000000010203040607080912
:102A9C0002030405060708090A0B0C0D0E0F101093
:042AAC000102000023
:042AB00031010008E8
:042AB4000D01000808
:102AB800000C0140000C0140000C01400100020024
:102AC80004000000010000000A0000000A000000E5
:102AD800030000000500000000127A000A00000050
:082AE8001000000001000000D5
:04000005080013FDDF
:00000001FF
