:020000040800F2
:1000000000280020DD180008291700082F17000815
:10001000351700083B1700084117000800000000D2
:10002000000000000000000000000000471700086A
:1000300053170008000000005F1700086B17000846
:100040002519000825190008251900082519000898
:100050002519000825190008251900082519000888
:100060002519000825190008251900082519000878
:100070002519000825190008251900082519000868
:100080002519000825190008251900082519000858
:100090002519000825190008251900082519000848
:1000A0002519000825190008251900082519000838
:1000B000791700082519000800000000251900081C
:1000C00025190008000000000000000025190008A4
:1000D0000000000025190008251900080000000094
:1000E000251900082519000825190008000000003E
:1000F0000000000000000000000000000000000000
:0C01000000000000000000005FF808F1A3
:10010C0010B5054C237833B9044B13B10448AFF345
:10011C0000800123237010BD380000200000000077
:10012C00542F000808B5034B1BB103490348AFF328
:10013C00008008BD000000003C000020542F000887
:10014C0080B584B000AF0023FB73C8E1FB7B9D4AF4
:10015C00D35C022B00F07C81022B00F3BD81002BC1
:10016C0002D0012B0DD0B7E1FB7B184600F058FCF8
:10017C000346002B00F0AB81FB7B924A0121D1544A
:10018C00A5E1FB7B184600F04BFC0346002B40F02E
:10019C005381FB7B8B4A0021D1548B4B1B68012B69
:1001AC0015D1FB7B002B40F0948100F0BDFC864BFD
:1001BC0002221A60854B1B68854A1360854B1B68AD
:1001CC00854A1360854B1B68854A136081E17E4B21
:1001DC001B68022B46D1FB7B002B11D100F0A4FC39
:1001EC00794B03221A60794B1B68794A1360794B5F
:1001FC001B68794A1360794B1B68794A136068E174
:10020C00FB7B012B0DD1724B1B680133704A1360C1
:10021C006F4B1B68632B40F35C816D4B00221A60A3
:10022C0057E1FB7B022B40F05481694B1A68674BFA
:10023C001B68D31A3B60694B1B683A6813443B60DC
:10024C00664B1B68002B40F34481644B1B68632B8B
:10025C0000F33F815E4B1B685C4A13605F4A3B684E
:10026C00136036E1584B1B68032B40D1FB7B002BF2
:10027C0011D100F059FC544B04221A60534B1B68EB
:10028C00534A1360534B1B68534A1360534B1B6800
:10029C00534A13601DE1FB7B012B05D14E4B1B68B0
:1002AC0001334D4A136014E1FB7B022B40F01181AA
:1002BC00494B1A68474B1B68D31A7B60434B1A682F
:1002CC007B681344632B00F30481404B1A687B68F2
:1002DC001344022B40F3FD803C4B1A687B6813449B
:1002EC003A4A13603C4B1B683A4A1360F1E0364BB8
:1002FC001B68042B40F0ED80FB7B002B58D1324B5C
:10030C0001221A60314B1B68314A1360314B1B6858
:10031C00314A1360314B1B68314A13602B4B1A68FE
:10032C002C4B1B681A442D4B1B6813442D4A13602D
:10033C00264B1A68274B1B681A44284B1B6813441E
:10034C00294A136001224FF48061284801F0E7FD2F
:10035C0000224FF40061254801F0E1FD01224FF429
:10036C008051224801F0DBFD00224FF400511F4860
:10037C0001F0D5FD01224FF480411C4801F0CFFD66
:10038C0001224FF40041194801F0C9FD134B1B68C1
:10039C00013B174A13600D4B1B68013B154A136058
:1003AC00282001F00DFA4FF47A7001F023FA90E056
:1003BC00FB7B012B20D10A4B1B680133084A1360CD
:1003CC0087E000BF54000020140000202000002013
:1003DC00B00000201C000020FC00002018000020B1
:1003EC00AC0000209C000020A4000020000C014068
:1003FC00A8000020A0000020FB7B022B69D13C4B05
:10040C001A683C4B1B68D31ABB603B4B1A68BB6821
:10041C001344632B5DDC384B1A68BB681344022B06
:10042C0057DD354B1A68BB681344334A1360304BA5
:10043C001B68304A13604CE0FB7B184600F00AFB4B
:10044C000346002B45D0FB7B2C4A0221D15440E0C3
:10045C00FB7B184600F0E4FA0346002B03D1FB7B30
:10046C00264A0021D154FB7B012B34D1244B1B6831
:10047C00022B0BD1234B1B680133224A1360214BF7
:10048C001B68632B02DD1F4B00221A601C4B1B6880
:10049C00032B0BD11C4B1B6801331B4A13601A4BEB
:1004AC001B68632B02DD184B00221A60144B1B686F
:1004BC00042B10D10E4B1B6801330D4A13600C4BEF
:1004CC001B68632B07DD0A4B00221A6003E000BF98
:1004DC0002E000BF00E000BFFB7B0133FB73FB7B42
:1004EC00022B7FF633AE00BF00BF1037BD4680BD78
:1004FC00AC00002018000020200000205400002038
:10050C0014000020B0000020FC00002080B500AFDB
:10051C006F4B1B68012B40F0D8804FF400416D48A5
:10052C0001F015FD6C4B1B68013B6B4A13606B4B68
:10053C001B68013B694A1360694B1A68694B1B685D
:10054C001A44654B1B689A4215D1664B1B68664A68
:10055C00136000224FF48051644801F0E0FC01224A
:10056C004FF40061614801F0DAFC01224FF4806124
:10057C005E4801F0D4FC5E4B1A685A4B1B681A4457
:10058C00564B1B689A4215D1594B1B68594A13603C
:10059C0000224FF48041554801F0C1FC01224FF478
:1005AC000041524801F0BBFC01224FF400514F486E
:1005BC0001F0B5FC484B1A68494B1B689A4215D19F
:1005CC00474B1B68484A136001224FF4805147483F
:1005DC0001F0A5FC01224FF40061444801F09FFC9E
:1005EC0000224FF48061414801F099FC3B4B1A68A2
:1005FC003C4B1B689A4215D13A4B1B683D4A136021
:10060C0001224FF48041394801F089FC00224FF45B
:10061C000041364801F083FC01224FF4005133486D
:10062C0001F07DFC2C4B1B68002B1FD1304B1B6841
:10063C002D4A13602E4B1A68294B1B681A44294B00
:10064C001B681344244A136001224FF4805127483D
:10065C0001F065FC00224FF40061244801F05FFCBE
:10066C0001224FF48061214801F059FC1B4B1B689F
:10067C00002B1FD11A4B1B681E4A13601C4B1A68A7
:10068C00174B1B681A44174B1B681344134A13600F
:10069C0001224FF48041154801F041FC01224FF436
:1006AC000041124801F03BFC00224FF400510F486E
:1006BC0001F035FC0C4B1B68013B0B4A13600D4BD6
:1006CC001B68013B0B4A136000E000BF00BF80BDFC
:1006DC0014000020000801409C000020A400002011
:1006EC00200000201C000020A8000020000C01406D
:1006FC0018000020A000002080B500AF894B1B68BB
:10070C00013B032B00F2028101A252F823F000BF3F
:10071C002D07000891070008150800089708000825
:10072C00814B1B68184600F029FA804B1B68184651
:10073C0000F0AAF97D4B1B687D4A52F8233018460D
:10074C0000F064FA7B4B1B68184600F03BFA774BC1
:10075C001B68184600F0C0F9744B1B68764A52F8B7
:10076C002330184600F012FC704B1B6801336F4AA3
:10077C0013606E4B1B68012B40F3CA806B4B00223D
:10078C001A60C5E06D4B1B68002B09D14FF48061DA
:10079C006B4801F0DCFB4FF40051694801F0D7FBCA
:1007AC00684B1B68184600F0E9F9604B1B6818464B
:1007BC0000F06AF95D4B1B685D4A52F8233018460D
:1007CC0000F024FA012000F087F9564B1B681846FC
:1007DC0000F0DCFB554B1B680133544A1360534B40
:1007EC001B68012B02DD514B00221A60534B1B6816
:1007FC00013B524A1360514B1B68002B80F28A80DC
:10080C004E4B0C221A6085E04C4B1B68002B09D117
:10081C004FF480514A4801F09AFB4FF4004148488C
:10082C0001F095FB484B1B68184600F0A7F93F4BAD
:10083C001B68184600F028F93C4B1B683C4A52F8E0
:10084C002330184600F0E2F9012000F045F9354B51
:10085C001B68184600F09AFB344B1B680133334A73
:10086C001360324B1B68012B02DD304B00221A60E7
:10087C00324B1B68013B314A1360304B1B68002B19
:10088C004ADA2E4B0C221A6046E02C4B1B68002BCC
:10089C0009D14FF400612A4801F059FB4FF4804113
:1008AC00274801F054FB294B1B68184600F066F9E9
:1008BC001E4B1B68184600F0E7F81C4B1B681C4AC3
:1008CC0052F82330184600F0A1F9012000F004F989
:1008DC00144B1B68184600F059FB144B1B68013372
:1008EC00124A1360114B1B68012B02DD0F4B0022C7
:1008FC001A60124B1B68013B104A13600F4B1B68AC
:10090C00002B0BDA0D4B0C221A6007E000BF06E03F
:10091C0000BF04E000BF02E000BF00E000BF00BF6A
:10092C0080BD00BF14000020A80000207000002033
:10093C0074000020A00000207C0000202400002077
:10094C00000C0140B0000020FC000020AC00002096
:10095C0090B583B000AF0023FB714AE0FA79FB79C4
:10096C002849895C284AD154FB79284A52F823201B
:10097C00FB79274931F81330FC791946104601F000
:10098C00B7FA03461A461F4B1A55FB791D4AD25C1F
:10099C00FB791D49CB5C9A4205D1FA79FB7919494F
:1009AC00895C1C4AD154FB791A4AD35C002B14D1B4
:1009BC00FB79194A32F81330632B09D8FB79164AA4
:1009CC0032F81320013291B2134A22F813100DE0C1
:1009DC00FB79124A0121D15408E0FB790E4A00211F
:1009EC0022F81310FB790D4A0021D154FB79013305
:1009FC00FB71FB79022BB1D900BF00BF0C37BD4690
:100A0C0090BD00BF5C0000206000002000000020B2
:100A1C000C0000205800002068000020640000201A
:100A2C0080B483B000AF0346FB71FB79022B01D974
:100A3C00002307E0FB79064AD35C002B0CBF012393
:100A4C000023DBB218460C37BD4680BC704700BF94
:100A5C005800002080B483B000AF0346FB71FB79D3
:100A6C00022B01D9FF2307E0FB79064AD35C012B4B
:100A7C000CBF01230023DBB218460C37BD4680BCEB
:100A8C00704700BF6400002080B582B000AF786072
:100A9C007B68002B03D07B68012B0BD015E0002268
:100AAC0008210C4801F03BFA01221021094801F001
:100ABC0036FA0AE001220821064801F030FA002239
:100ACC001021044801F02BFA00BF00BF0837BD46C7
:100ADC0080BD00BF000C014080B582B000AF7860D3
:100AEC007B68002B03D07B68012B0BD015E0002218
:100AFC0020210C4801F013FA01224021094801F091
:100B0C000EFA0AE001222021064801F008FA002220
:100B1C004021044801F003FA00BF00BF0837BD466E
:100B2C0080BD00BF000C014080B500AF01224FF426
:100B3C008061114801F0F3F901224FF400610E4875
:100B4C0001F0EDF901224FF480510B4801F0E7F967
:100B5C0001224FF40051084801F0E1F901224FF451
:100B6C008041054801F0DBF901224FF400410248B5
:100B7C0001F0D5F900BF80BD000C014080B483B0FA
:100B8C0000AF78607B680D4A82FB03129210DB1772
:100B9C00D31A0B4A13607968084B83FB01239A1014
:100BAC00CB17D21A13469B0013445B00CA1A044B92
:100BBC005A6000BF0C37BD4680BC704767666666DE
:100BCC007400002080B483B000AF78607B680D4A5D
:100BDC0082FB03129210DB17D31A0B4A136079684D
:100BEC00084B83FB01239A10CB17D21A13469B0098
:100BFC0013445B00CA1A044B5A6000BF0C37BD4645
:100C0C0080BC7047676666667C00002080B582B049
:100C1C0000AF78607B68012B23D101220221C048F0
:100C2C0001F07DF900220421BD4801F078F9002281
:100C3C000821BB4801F073F901221021B84801F0DA
:100C4C006EF901222021B64801F069F901224021F8
:100C5C00B34801F064F901228021B14801F05FF939
:100C6C008EE17B68022B23D100220221AC4801F0DB
:100C7C0056F900220421AA4801F051F90122082159
:100C8C00A74801F04CF900221021A54801F047F9C2
:100C9C0000222021A24801F042F901224021A04863
:100CAC0001F03DF9002280219D4801F038F967E1FF
:100CBC007B68032B23D100220221994801F02FF9E4
:100CCC0000220421964801F02AF9002208219448B8
:100CDC0001F025F900221021914801F020F90122A0
:100CEC0020218F4801F01BF9012240218C4801F092
:100CFC0016F9002280218A4801F011F940E17B6845
:100D0C00002B23D100220221854801F008F9002292
:100D1C000421834801F003F900220821804801F0E6
:100D2C00FEF8002210217E4801F0F9F80022202163
:100D3C007B4801F0F4F800224021794801F0EFF8EB
:100D4C0001228021764801F0EAF819E17B68042B36
:100D5C0023D101220221724801F0E1F80022042182
:100D6C006F4801F0DCF8002208216D4801F0D7F83B
:100D7C00012210216A4801F0D2F801222021684892
:100D8C0001F0CDF800224021654801F0C8F800229E
:100D9C008021634801F0C3F8F2E07B68052B23D176
:100DAC00002202215E4801F0BAF8012204215C48BD
:100DBC0001F0B5F800220821594801F0B0F80022E2
:100DCC001021574801F0ABF801222021544801F0C2
:100DDC00A6F800224021524801F0A1F800228021FF
:100DEC004F4801F09CF8CBE07B68062B23D1002206
:100DFC0002214B4801F093F801220421484801F0EC
:100E0C008EF800220821464801F089F800221021B2
:100E1C00434801F084F800222021414801F07FF87A
:100E2C00002240213E4801F07AF8002280213C4803
:100E3C0001F075F8A4E07B68072B23D10022022176
:100E4C00374801F06CF800220421354801F067F8AE
:100E5C0000220821324801F062F8012210213048AA
:100E6C0001F05DF8012220212D4801F058F80122F3
:100E7C0040212B4801F053F801228021284801F031
:100E8C004EF87DE07B68082B23D1002202212448F8
:100E9C0001F045F800220421214801F040F800221D
:100EAC0008211F4801F03BF8002210211C4801F0DA
:100EBC0036F8002220211A4801F031F80022402196
:100ECC00174801F02CF800228021154801F027F872
:100EDC0056E07B68092B25D100220221104801F035
:100EEC001EF8002204210E4801F019F800220821F6
:100EFC000B4801F014F800221021094801F00FF8FA
:100F0C0001222021064801F00AF800224021044861
:100F1C0001F005F800228021014801F000F82FE0D3
:100F2C00000801407B680A2B2AD101224FF4807102
:100F3C00154800F0F4FF01224FF40071124800F044
:100F4C00EEFF01224FF480610F4800F0E8FF012210
:100F5C004FF400610C4800F0E2FF01224FF4805185
:100F6C00094800F0DCFF01224FF40051064800F064
:100F7C00D6FF01224FF48041034800F0D0FF00BFA0
:100F8C000837BD4680BD00BF0008014080B582B067
:100F9C0000AF78607B68012B2AD101224FF480715D
:100FAC00CB4800F0BCFF00224FF40071C84800F0A1
:100FBC00B6FF00224FF48061C54800F0B0FF01225B
:100FCC004FF40061C24800F0AAFF01224FF4805197
:100FDC00BF4800F0A4FF01224FF40051BC4800F0C0
:100FEC009EFF01224FF48041B94800F098FFCDE1FB
:100FFC007B68022B2AD100224FF48071B44800F098
:10100C008EFF00224FF40071B14800F088FF0122DE
:10101C004FF48061AE4800F082FF00224FF4006173
:10102C00AB4800F07CFF00224FF48051A84800F040
:10103C0076FF01224FF40051A54800F070FF00220A
:10104C004FF48041A24800F06AFF9FE17B68032BBC
:10105C002AD100224FF480719D4800F060FF0022DD
:10106C004FF400719A4800F05AFF00224FF480614F
:10107C00974800F054FF00224FF40061944800F0B0
:10108C004EFF01224FF48051914800F048FF01229D
:10109C004FF400518E4800F042FF00224FF4804183
:1010AC008B4800F03CFF71E17B68002B2AD10022B9
:1010BC004FF48071864800F032FF00224FF400712B
:1010CC00834800F02CFF00224FF48061804800F030
:1010DC0026FF00224FF400617D4800F020FF002223
:1010EC004FF480517A4800F01AFF00224FF400515F
:1010FC00774800F014FF01224FF48041744800F04F
:10110C000EFF43E17B68042B2AD101224FF480713E
:10111C006F4800F004FF00224FF400716C4800F09F
:10112C00FEFE00224FF48061694800F0F8FE0122B7
:10113C004FF40061664800F0F2FE01224FF480513A
:10114C00634800F0ECFE00224FF40051604800F0C0
:10115C00E6FE00224FF480415D4800F0E0FE15E110
:10116C007B68052B2AD100224FF48071584800F07F
:10117C00D6FE01224FF40071554800F0D0FE00223B
:10118C004FF48061524800F0CAFE00224FF4006117
:10119C004F4800F0C4FE01224FF480514C4800F03F
:1011AC00BEFE00224FF40051494800F0B8FE002268
:1011BC004FF48041464800F0B2FEE7E07B68062B16
:1011CC002AD100224FF48071414800F0A8FE012280
:1011DC004FF400713E4800F0A2FE00224FF48061F3
:1011EC003B4800F09CFE00224FF40061384800F0B0
:1011FC0096FE00224FF48051354800F090FE0022FC
:10120C004FF40051324800F08AFE00224FF4804126
:10121C002F4800F084FEB9E07B68072B2AD100220E
:10122C004FF480712A4800F07AFE00224FF40071CE
:10123C00274800F074FE00224FF48061244800F02F
:10124C006EFE01224FF40061214800F068FE01227D
:10125C004FF480511E4800F062FE01224FF4005101
:10126C001B4800F05CFE01224FF48041184800F04E
:10127C0056FE8BE07B68082B2CD100224FF480713A
:10128C00134800F04CFE00224FF40071104800F09F
:10129C0046FE00224FF480610D4800F040FE002213
:1012AC004FF400610A4800F03AFE00224FF48051DE
:1012BC00074800F034FE00224FF40051044800F0BF
:1012CC002EFE00224FF48041014800F028FE5DE024
:1012DC00000801407B68092B2AD100224FF4807151
:1012EC002C4800F01CFE00224FF40071294800F03D
:1012FC0016FE00224FF48061264800F010FE0022FA
:10130C004FF40061234800F00AFE01224FF4805193
:10131C00204800F004FE00224FF400511D4800F05C
:10132C00FEFD00224FF480411A4800F0F8FD2DE03C
:10133C007B680A2B2AD101224FF48071154800F0EA
:10134C00EEFD01224FF40071124800F0E8FD01227D
:10135C004FF480610F4800F0E2FD01224FF4006170
:10136C000C4800F0DCFD01224FF48051094800F0DC
:10137C00D6FD01224FF40051064800F0D0FD0122A9
:10138C004FF48041034800F0CAFD00BF0837BD464A
:10139C0080BD00BF0008014080B500AF00F0BEFA70
:1013AC0000F076F800F0FCF800F0AEF82A4801F0F6
:1013BC0013FA0A2000F0EAF9282000F001FA4FF4A1
:1013CC007A7000F017FA254B1A68254B1B681A44E3
:1013DC00244B1B681344244A1360234B1B68234A79
:1013EC0013601E4B1B68224A13601E4B1B68214A5C
:1013FC0013601B4B1B68204A1360184B1B68013B86
:10140C001E4A1360174B1B68013B1D4A1360134B9C
:10141C001A68134B1B681344124A1360194B1B6850
:10142C00012B04D10A2000F0B1F9FEF789FE164B0E
:10143C001B68012B05D14FF47A7000F0DBF9FFF734
:10144C0065F8124B1B68012BE8D1282000F0B8F985
:10145C00FFF752F9E2E700BFB400002018000020AB
:10146C001C000020200000209C000020A400002074
:10147C00AC000020B0000020FC000020A8000020E0
:10148C00A000002090000020980000209400002074
:10149C0080B590B000AF07F1180328220021184640
:1014AC0001F04AFD3B1D00221A605A609A60DA6016
:1014BC001A610223BB610123BB621023FB62002370
:1014CC007B6307F11803184600F05AFD0346002B06
:1014DC0001D000F0C7F80F237B600023BB60002312
:1014EC00FB6000233B6100237B613B1D0021184600
:1014FC0000F0C6FF0346002B01D000F0B3F800BF8C
:10150C004037BD4680BD000080B586B000AF07F106
:10151C00080300221A605A609A60DA603B46002287
:10152C001A605A601D4B4FF080421A601B4B41F6FB
:10153C003F725A60194B00229A60184B0922DA60EC
:10154C00164B00221A61154B00229A61134801F0C8
:10155C00F3F80346002B01D000F084F84FF48053CD
:10156C00BB6007F1080319460C4801F071FA0346F9
:10157C00002B01D000F076F800233B6000237B6049
:10158C003B461946054801F049FC0346002B01D0A7
:10159C0000F068F800BF1837BD4680BDB4000020CD
:1015AC0080B586B000AF07F1080300221A605A60BC
:1015BC009A60DA60284B9B69274A43F004039361D5
:1015CC00254B9B6903F004037B607B68224B9B6972
:1015DC00214A43F0080393611F4B9B6903F00803F6
:1015EC003B603B6800224FF6FE711C4800F097FCF4
:1015FC0000224FF678411A4800F091FC4FF6FE732A
:10160C00BB600123FB6000233B6102237B6107F17C
:10161C0008031946114800F0F1FA0723BB600023B8
:10162C00FB6000233B6107F1080319460C4800F0EE
:10163C00E5FA4FF67843BB600123FB6000233B6166
:10164C0002237B6107F108031946054800F0D6FA1E
:10165C0000BF1837BD4680BD001002400008014095
:10166C00000C014080B400AF72B600BFFEE7000072
:10167C0080B485B000AF154B9B69144A43F001034D
:10168C009361124B9B6903F00103BB60BB680F4B6A
:10169C00DB690E4A43F08053D3610C4BDB6903F0DA
:1016AC0080537B607B680A4B5B68FB60FB6823F0B4
:1016BC00E063FB60FB6843F08063FB60044AFB68FB
:1016CC00536000BF1437BD4680BC70470010024009
:1016DC000000014080B584B000AF78607B681B6867
:1016EC00B3F1804F13D10C4BDB690B4A43F0010370
:1016FC00D361094BDB6903F00103FB60FB6800223B
:10170C0000211C2000F043FA1C2000F05CFA00BF02
:10171C001037BD4680BD00BF0010024080B400AF42
:10172C00FEE780B400AFFEE780B400AFFEE780B404
:10173C0000AFFEE780B400AFFEE780B400AF00BF9F
:10174C00BD4680BC704780B400AF00BFBD4680BCB6
:10175C00704780B400AF00BFBD4680BC704780B5F9
:10176C0000AF00F021F900BF80BD000080B500AFD4
:10177C00024801F07DF800BF80BD00BFB40000201E
:10178C0080B400AF00BFBD4680BC704780B483B04E
:10179C0000AF7860074B1B687A6892FBF3F3064A3C
:1017AC001360064B00221A6000BF0C37BD4680BC8C
:1017BC00704700BF2C000020840000209000002007
:1017CC0080B483B000AF7860074B1B687A6892FBDB
:1017DC00F3F3064A1360064B00221A6000BF0C3765
:1017EC00BD4680BC704700BF2C0000208800002044
:1017FC009400002080B483B000AF7860074B1B6866
:10180C007A6892FBF3F3064A1360064B00221A60C7
:10181C0000BF0C37BD4680BC704700BF2C000020B9
:10182C008C0000209800002080B400AF194B1B687E
:10183C00002B0BDD174B1B68013B164A1360154B35
:10184C001B68002B02D1144B01221A60134B1B682E
:10185C00002B0BDD114B1B68013B104A13600F4B27
:10186C001B68002B02D10E4B01221A600D4B1B681A
:10187C00002B0BDD0B4B1B68013B0A4A1360094B19
:10188C001B68002B02D1084B01221A6000BFBD4619
:10189C0080BC70478400002090000020880000204D
:1018AC00940000208C0000209800002080B582B0AD
:1018BC0000AF7860FFF7B8FF7B681B68B3F1804F0F
:1018CC0001D1FFF745F800BF0837BD4680BD0000C9
:1018DC00FFF756FF0B480C490C4A002302E0D45882
:1018EC00C4500433C4188C42F9D3094A094C002360
:1018FC0001E013600432A242FBD301F0F9FAFFF7C6
:10190C004BFD70470000002038000020982F000885
:10191C003800002004010020FEE7000080B500AF75
:10192C00084B1B68074A43F010031360032000F0B8
:10193C0023F90F2000F008F8FFF79AFE0023184651
:10194C0080BD00BF0020024080B582B000AF78603F
:10195C00124B1A68124B1B7819464FF47A73B3FB6F
:10196C00F1F3B2FBF3F3184600F03BF90346002BFE
:10197C0001D001230EE07B680F2B0AD80022796876
:10198C004FF0FF3000F003F9064A7B681360002328
:10199C0000E0012318460837BD4680BD2800002012
:1019AC00340000203000002080B400AF054B1B78C1
:1019BC001A46054B1B681344034A136000BFBD460F
:1019CC0080BC7047340000200001002080B400AFC0
:1019DC00024B1B681846BD4680BC704700010020B6
:1019EC0080B485B000AF78607B6803F00703FB60C0
:1019FC000C4BDB68BB60BA684FF6FF031340BB604F
:101A0C00FB681A02BB68134343F0BF6343F4003313
:101A1C00BB60044ABB68D36000BF1437BD4680BCB2
:101A2C00704700BF00ED00E080B400AF044BDB68F2
:101A3C001B0A03F007031846BD4680BC704700BF65
:101A4C0000ED00E080B483B000AF0346FB7197F962
:101A5C000730002B0BDBFB7903F01F02064997F9CB
:101A6C0007305B09012000FA02F241F8232000BF85
:101A7C000C37BD4680BC704700E100E080B483B0F9
:101A8C0000AF03463960FB7197F90730002B0ADB76
:101A9C003B68DAB20C4997F907301201D2B20B4409
:101AAC0083F800230AE03B68DAB20849FB7903F0BB
:101ABC000F03043B1201D2B20B441A7600BF0C3751
:101ACC00BD4680BC704700BF00E100E000ED00E0C7
:101ADC0080B489B000AFF860B9607A60FB6803F03D
:101AEC000703FB61FB69C3F10703042B28BF042325
:101AFC00BB61FB690433062B02D9FB69033B00E095
:101B0C0000237B614FF0FF32BB6902FA03F3DA4327
:101B1C00BB681A407B699A404FF0FF317B6901FA30
:101B2C0003F3D9437B680B40134318462437BD4657
:101B3C0080BC704780B582B000AF78607B68013B99
:101B4C00B3F1807F01D301230FE00A4A7B68013B8C
:101B5C0053600F214FF0FF30FFF790FF054B002231
:101B6C009A60044B07221A60002318460837BD46BA
:101B7C0080BD00BF10E000E080B582B000AF78609F
:101B8C007868FFF72DFF00BF0837BD4680BD80B5D4
:101B9C0086B000AF0346B9607A60FB7300237B61AB
:101BAC00FFF742FF78617A68B9687869FFF790FFB0
:101BBC00024697F90F3011461846FFF75FFF00BF3A
:101BCC001837BD4680BD80B582B000AF0346FB71AF
:101BDC0097F907301846FFF735FF00BF0837BD46A9
:101BEC0080BD80B582B000AF78607868FFF7A2FF47
:101BFC00034618460837BD4680BD000080B48BB044
:101C0C0000AF7860396000237B6200233B6248E1BF
:101C1C0001227B6A02FA03F3FB613B681B68FA69D9
:101C2C001340BB61BA69FB699A4240F037813B684B
:101C3C005B68A34A93425ED0A14A934275D8A14AED
:101C4C00934258D09F4A93426FD89F4A934252D0A6
:101C5C009D4A934269D89D4A93424CD09B4A9342E9
:101C6C0063D89B4A934246D0994A93425DD8122B33
:101C7C002AD8122B59D801A252F823F0031D0008C0
:101C8C00DD1C0008EF1C0008311D0008371D000882
:101C9C00371D0008371D0008371D0008371D0008C8
:101CAC00371D0008371D0008371D0008371D0008B8
:101CBC00371D0008371D0008371D0008371D0008A8
:101CCC00E51C0008F91C0008824A934213D02CE052
:101CDC003B68DB683B6229E03B68DB6804333B62B2
:101CEC0024E03B68DB6808333B621FE03B68DB6841
:101CFC000C333B621AE03B689B68002B02D1042337
:101D0C003B6213E03B689B68012B05D108233B62C7
:101D1C007B68FA691A6109E008233B627B68FA69FF
:101D2C005A6103E000233B6200E000BFBB69FF2B5C
:101D3C0001D87B6801E07B6804337B61BB69FF2BB6
:101D4C0002D87B6A9B0002E07B6A083B9B003B61EC
:101D5C007B691A680F213B6901FA03F3DB431A40D4
:101D6C00396A3B6901FA03F31A437B691A603B68D1
:101D7C005B6803F08053002B00F09080564B9B69FE
:101D8C00554A43F001039361534B9B6903F00103E4
:101D9C00BB60BB68514A7B6A9B08023352F8233004
:101DAC00FB607B6A03F003039B000F2202FA03F330
:101DBC00DB43FA681340FB607B68494A93420DD0C1
:101DCC007B68484A934207D07B68474A934201D1CB
:101DDC00022304E0032302E0012300E000237A6ADB
:101DEC0002F0030292009340FA681343FB603B49F4
:101DFC007B6A9B080233FA6841F823203B685B68D6
:101E0C0003F48013002B06D0384B9A683749BB6912
:101E1C0013438B6006E0354B9A68BB69DB4333494F
:101E2C0013408B603B685B6803F40013002B06D0F7
:101E3C002E4BDA682D49BB691343CB6006E02B4B64
:101E4C00DA68BB69DB4329491340CB603B685B68AC
:101E5C0003F40033002B06D0244B5A682349BB698A
:101E6C0013434B6006E0214B5A68BB69DB431F49A7
:101E7C0013404B603B685B6803F48033002B06D047
:101E8C001A4B1A681949BB6913430B6006E0174BD0
:101E9C001A68BB69DB43154913400B607B6A01333D
:101EAC007B623B681A687B6A22FA03F3002B7FF48F
:101EBC00AFAE00BF00BF2C37BD4680BC704700BF23
:101ECC000000321000003110000022100000211020
:101EDC000000121000001110001002400000014020
:101EEC0000080140000C01400010014000040140BA
:101EFC0080B485B000AF78600B467B807B689A68B5
:101F0C007B881340002B02D00123FB7301E00023DC
:101F1C00FB73FB7B18461437BD4680BC704780B4FE
:101F2C0083B000AF78600B467B8013467B707B7868
:101F3C00002B03D07A887B681A6103E07B881A0433
:101F4C007B681A6100BF0C37BD4680BC704780B4FB
:101F5C0085B000AF78600B467B807B68DB68FB60EC
:101F6C007A88FB6813401A04FB68D9437B880B40C2
:101F7C001A437B681A6100BF1437BD4680BC70479A
:101F8C0080B586B000AF78607B68002B01D101234F
:101F9C006CE27B681B6803F00103002B00F0878068
:101FAC00924B5B6803F00C03042B0CD08F4B5B68DB
:101FBC0003F00C03082B12D18C4B5B6803F48033B9
:101FCC00B3F5803F0BD1894B1B6803F40033002B16
:101FDC006CD07B685B68002B68D1012346E27B6880
:101FEC005B68B3F5803F06D1804B1B687F4A43F496
:101FFC00803313602EE07B685B68002B0CD17B4B2D
:10200C001B687A4A23F480331360784B1B68774A39
:10201C0023F4802313601DE07B685B68B3F5A02F6D
:10202C000CD1724B1B68714A43F4802313606F4BC5
:10203C001B686E4A43F4803313600BE06B4B1B68D8
:10204C006A4A23F480331360684B1B68674A23F495
:10205C00802313607B685B68002B13D0FFF7B6FC02
:10206C00386108E0FFF7B2FC02463B69D31A642BD7
:10207C0001D90323FAE15D4B1B6803F40033002BF9
:10208C00F0D014E0FFF7A2FC386108E0FFF79EFCEB
:10209C0002463B69D31A642B01D90323E6E1534B67
:1020AC001B6803F40033002BF0D100E000BF7B6809
:1020BC001B6803F00203002B63D04C4B5B6803F0EE
:1020CC000C03002B0BD0494B5B6803F00C03082B63
:1020DC001CD1464B5B6803F48033002B16D1434B69
:1020EC001B6803F00203002B05D07B681B69012BD6
:1020FC0001D00123BAE13D4B1B6823F0F8027B6849
:10210C005B69DB00394913430B603AE07B681B6960
:10211C00002B20D0364B01221A60FFF757FC386198
:10212C0008E0FFF753FC02463B69D31A022B01D996
:10213C0003239BE12D4B1B6803F00203002BF0D013
:10214C002A4B1B6823F0F8027B685B69DB0027498C
:10215C0013430B6015E0264B00221A60FFF736FC88
:10216C00386108E0FFF732FC02463B69D31A022BB8
:10217C0001D903237AE11D4B1B6803F00203002BEA
:10218C00F0D17B681B6803F00803002B3AD07B6806
:10219C009B69002B19D0174B01221A60FFF716FC14
:1021AC00386108E0FFF712FC02463B69D31A022B98
:1021BC0001D903235AE10D4B5B6A03F00203002B98
:1021CC00F0D0012000F09AFA1CE00A4B00221A60B1
:1021DC00FFF7FCFB38610FE0FFF7F8FB02463B69A9
:1021EC00D31A022B08D9032340E100BF0010024090
:1021FC0000004242800442429E4B5B6A03F00203A1
:10220C00002BE9D17B681B6803F00403002B00F062
:10221C00A6800023FB75974BDB6903F08053002BE2
:10222C000DD1944BDB69934A43F08053D361914BAE
:10223C00DB6903F08053BB60BB680123FB758E4BDD
:10224C001B6803F48073002B18D18B4B1B688A4AD4
:10225C0043F480731360FFF7B9FB386108E0FFF7B4
:10226C00B5FB02463B69D31A642B01D90323FDE06D
:10227C00814B1B6803F48073002BF0D07B68DB6808
:10228C00012B06D17B4B1B6A7A4A43F00103136284
:10229C002DE07B68DB68002B0CD1764B1B6A754AF2
:1022AC0023F001031362734B1B6A724A23F004037D
:1022BC0013621CE07B68DB68052B0CD16D4B1B6A31
:1022CC006C4A43F0040313626A4B1B6A694A43F07D
:1022DC00010313620BE0674B1B6A664A23F0010390
:1022EC001362644B1B6A634A23F0040313627B681A
:1022FC00DB68002B15D0FFF769FB38610AE0FFF7AC
:10230C0065FB02463B69D31A41F28832934201D9EC
:10231C000323ABE0574B1B6A03F00203002BEED0F8
:10232C0014E0FFF753FB38610AE0FFF74FFB02465E
:10233C003B69D31A41F28832934201D9032395E0C9
:10234C004C4B1B6A03F00203002BEED1FB7D012BDF
:10235C0005D1484BDB69474A23F08053D3617B6836
:10236C00DB69002B00F08180424B5B6803F00C03AF
:10237C00082B61D07B68DB69022B46D13F4B0022D6
:10238C001A60FFF723FB386108E0FFF71FFB0246DA
:10239C003B69D31A022B01D9032367E0354B1B6829
:1023AC0003F00073002BF0D17B681B6AB3F5803F00
:1023BC0008D1304B5B6823F400327B689B682D4955
:1023CC0013434B602B4B5B6823F474127B68196AC4
:1023DC007B685B6A0B43274913434B60274B0122F5
:1023EC001A60FFF7F3FA386108E0FFF7EFFA0246DC
:1023FC003B69D31A022B01D9032337E01D4B1B6811
:10240C0003F00073002BF0D02FE01C4B00221A605D
:10241C00FFF7DCFA386108E0FFF7D8FA02463B69AF
:10242C00D31A022B01D9032320E0124B1B6803F0B3
:10243C000073002BF0D118E07B68DB69012B01D114
:10244C00012313E00B4B5B68FB60FB6803F48032E9
:10245C007B681B6A9A4206D1FB6803F470127B6896
:10246C005B6A9A4201D0012300E00023184618371A
:10247C00BD4680BD0010024000700040600042422A
:10248C0080B584B000AF786039607B68002B01D1D7
:10249C000123D0E06A4B1B6803F007033A689A42A9
:1024AC0010D9674B1B6823F0070265493B6813433F
:1024BC000B60634B1B6803F007033A689A4201D028
:1024CC000123B8E07B681B6803F00203002B20D0CB
:1024DC007B681B6803F00403002B05D0594B5B6829
:1024EC00584A43F4E06353607B681B6803F00803AD
:1024FC00002B05D0534B5B68524A43F46053536036
:10250C00504B5B6823F0F0027B689B684D4913438A
:10251C004B607B681B6803F00103002B40D07B6889
:10252C005B68012B07D1474B1B6803F40033002B6E
:10253C0015D101237FE07B685B68022B07D1414BEF
:10254C001B6803F00073002B09D1012373E03D4B92
:10255C001B6803F00203002B01D101236BE0394B04
:10256C005B6823F003027B685B68364913434B605E
:10257C00FFF72CFAF8600AE0FFF728FA0246FB682E
:10258C00D31A41F28832934201D9032353E02D4BE5
:10259C005B6803F00C027B685B689B009A42EBD192
:1025AC00274B1B6803F007033A689A4210D2244B5E
:1025BC001B6823F0070222493B6813430B60204B36
:1025CC001B6803F007033A689A4201D0012332E0FA
:1025DC007B681B6803F00403002B08D0194B5B6865
:1025EC0023F4E0627B68DB68164913434B607B681D
:1025FC001B6803F00803002B09D0124B5B6823F413
:10260C0060527B681B69DB000E4913434B6000F082
:10261C0021F802460B4B5B681B0903F00F030A49B8
:10262C00CB5C22FA03F3094A1360094B1B6818466A
:10263C00FFF78AF9002318461037BD4680BD00BF4E
:10264C0000200240001002406C2F000828000020DF
:10265C003000002080B487B000AF0023FB60002363
:10266C00BB6000237B6100237B6000233B611E4B1E
:10267C005B68FB60FB6803F00C03042B02D0082B97
:10268C0003D027E0194B3B6127E0FB689B0C03F060
:10269C000F03174AD35C7B60FB6803F48033002B79
:1026AC0010D0114B5B685B0C03F00103114AD35C37
:1026BC00BB607B680D4A02FB03F2BB68B2FBF3F311
:1026CC007B6104E07B680C4A02FB03F37B617B6952
:1026DC003B6102E0054B3B6100BF3B6918461C3770
:1026EC00BD4680BC704700BF0010024000127A004B
:1026FC007C2F00088C2F000800093D0080B485B0A9
:10270C0000AF78600A4B1B680A4AA2FB03235B0AE2
:10271C007A6802FB03F3FB6000BFFB685A1EFA6089
:10272C00002BF9D100BF00BF1437BD4680BC7047E9
:10273C0028000020D34D621080B582B000AF7860C5
:10274C007B68002B01D1012341E07B6893F83D307D
:10275C00DBB2002B06D17B68002283F83C20786822
:10276C00FEF7B8FF7B68022283F83D207B681A686D
:10277C007B6804331946104600F056FA7B68012238
:10278C0083F846207B68012283F83E207B68012277
:10279C0083F83F207B68012283F840207B6801226C
:1027AC0083F841207B68012283F842207B68012258
:1027BC0083F843207B68012283F844207B68012244
:1027CC0083F845207B68012283F83D2000231846BE
:1027DC000837BD4680BD000080B485B000AF78607E
:1027EC007B6893F83D30DBB2012B01D0012335E03F
:1027FC007B68022283F83D207B681B68DA687B6863
:10280C001B6842F00102DA607B681B68164A93422F
:10281C0009D07B681B68B3F1804F04D07B681B68C0
:10282C00124A934211D17B681B689B6803F0070323
:10283C00FB60FB68062B10D07B681B681A687B68F2
:10284C001B6842F001021A6007E07B681B681A687B
:10285C007B681B6842F001021A600023184614378B
:10286C00BD4680BC704700BF002C014000040040F6
:10287C0080B584B000AF78607B681B68DB68FB6058
:10288C007B681B681B69BB60BB6803F00203002BF1
:10289C0020D0FB6803F00203002B1BD07B681B6865
:1028AC006FF002021A617B6801221A777B681B6841
:1028BC009B6903F00303002B03D0786800F098F9B0
:1028CC0005E0786800F08BF9786800F09AF97B687D
:1028DC0000221A77BB6803F00403002B20D0FB689E
:1028EC0003F00403002B1BD07B681B686FF0040201
:1028FC001A617B6802221A777B681B689B6903F458
:10290C004073002B03D0786800F072F905E078680A
:10291C0000F065F9786800F074F97B6800221A778A
:10292C00BB6803F00803002B20D0FB6803F00803FE
:10293C00002B1BD07B681B686FF008021A617B6848
:10294C0004221A777B681B68DB6903F00303002BF6
:10295C0003D0786800F04CF905E0786800F03FF996
:10296C00786800F04EF97B6800221A77BB6803F098
:10297C001003002B20D0FB6803F01003002B1BD09E
:10298C007B681B686FF010021A617B6808221A774B
:10299C007B681B68DB6903F44073002B03D07868F9
:1029AC0000F026F905E0786800F019F9786800F075
:1029BC0028F97B6800221A77BB6803F00103002B0F
:1029CC000CD0FB6803F00103002B07D07B681B685D
:1029DC006FF001021A617868FEF768FFBB6803F0BC
:1029EC008003002B0CD0FB6803F08003002B07D076
:1029FC007B681B686FF080021A61786800F06FFAD0
:102A0C00BB6803F04003002B0CD0FB6803F04003C1
:102A1C00002B07D07B681B686FF040021A61786846
:102A2C0000F0F8F8BB6803F02003002B0CD0FB6817
:102A3C0003F02003002B07D07B681B686FF020028B
:102A4C001A61786800F042FA00BF1037BD4680BDAD
:102A5C0080B584B000AF786039600023FB737B686D
:102A6C0093F83C30012B01D10223B4E07B680122A6
:102A7C0083F83C207B68022283F83D207B681B682E
:102A8C009B68BB60BB6823F07703BB60BB6823F417
:102A9C007F43BB607B681B68BA689A603B681B68A5
:102AAC00B3F5005F3ED0B3F5005F00F28780B3F55D
:102ABC00805F00F08680B3F5805F7FD8702B1AD0D2
:102ACC00702B7BD8602B50D0602B77D8502B3CD000
:102ADC00502B73D8402B58D0402B6FD8302B64D050
:102AEC00302B6BD8202B60D0202B67D8002B5CD0E0
:102AFC00102B5AD062E07B6818683B6899683B6879
:102B0C005A683B68DB6800F06AF97B681B689B6855
:102B1C00BB60BB6843F07703BB607B681B68BA681B
:102B2C009A604FE07B6818683B6899683B685A6804
:102B3C003B68DB6800F053F97B681B689A687B681C
:102B4C001B6842F480429A603CE07B6818683B68E2
:102B5C0059683B68DB681A4600F0CAF87B681B684A
:102B6C005021184600F021F92CE07B6818683B686E
:102B7C0059683B68DB681A4600F0E8F87B681B680C
:102B8C006021184600F011F91CE07B6818683B685E
:102B9C0059683B68DB681A4600F0AAF87B681B682A
:102BAC004021184600F001F90CE07B681A683B687C
:102BBC001B681946104600F0F8F803E00123FB737C
:102BCC0000E000BF7B68012283F83D207B68002277
:102BDC0083F83C20FB7B18461037BD4680BD80B483
:102BEC0083B000AF786000BF0C37BD4680BC704727
:102BFC0080B483B000AF786000BF0C37BD4680BC9A
:102C0C00704780B483B000AF786000BF0C37BD460E
:102C1C0080BC704780B483B000AF786000BF0C37C5
:102C2C00BD4680BC7047000080B485B000AF7860B2
:102C3C0039607B681B68FB607B682B4A934207D02A
:102C4C007B68B3F1804F03D07B68284A934208D14C
:102C5C00FB6823F07003FB603B685B68FA68134306
:102C6C00FB607B68204A934207D07B68B3F1804FAE
:102C7C0003D07B681D4A934208D1FB6823F4407350
:102C8C00FB603B68DB68FA681343FB60FB6823F06E
:102C9C0080023B685B691343FB607B68FA681A60CF
:102CAC003B689A687B68DA623B681A687B689A6250
:102CBC007B680D4A934203D13B681A697B681A639F
:102CCC007B6801225A617B681B6903F00103002BAE
:102CDC0005D07B681B6923F001027B681A6100BF79
:102CEC001437BD4680BC7047002C014000040040E6
:102CFC0080B487B000AFF860B9607A60FB681B6A7B
:102D0C007B61FB681B6A23F00102FB681A62FB689B
:102D1C009B693B613B6923F0F0033B617B681B01C2
:102D2C003A6913433B617B6923F00A037B617A693F
:102D3C00BB6813437B61FB683A699A61FB687A69EB
:102D4C001A6200BF1C37BD4680BC704780B487B088
:102D5C0000AFF860B9607A60FB681B6A7B61FB6846
:102D6C001B6A23F01002FB681A62FB689B693B61CB
:102D7C003B6923F470433B617B681B033A69134343
:102D8C003B617B6923F0A0037B61BB681B017A6903
:102D9C0013437B61FB683A699A61FB687A691A6232
:102DAC0000BF1C37BD4680BC704780B485B000AFF7
:102DBC00786039607B689B68FB60FB6823F070036C
:102DCC00FB603A68FB68134343F00703FB607B68C6
:102DDC00FA689A6000BF1437BD4680BC704780B457
:102DEC0087B000AFF860B9607A603B60FB689B68A5
:102DFC007B617B6923F47F437B613B681A027B68B0
:102E0C001A43BB6813437A6913437B61FB687A6985
:102E1C009A6000BF1C37BD4680BC704780B485B03B
:102E2C0000AF786039607B6893F83C30012B01D19E
:102E3C00022341E07B68012283F83C207B6802225C
:102E4C0083F83D207B681B685B68FB607B681B68B4
:102E5C009B68BB60FB6823F07003FB603B681B68DE
:102E6C00FA681343FB607B681B68FA685A607B68DE
:102E7C001B68144A934209D07B681B68B3F1804FDE
:102E8C0004D07B681B68104A93420CD1BB6823F0BA
:102E9C008003BB603B685B68BA681343BB607B68AC
:102EAC001B68BA689A607B68012283F83D207B68B6
:102EBC00002283F83C20002318461437BD4680BC02
:102ECC00704700BF002C01400004004080B483B068
:102EDC0000AF786000BF0C37BD4680BC704780B433
:102EEC0083B000AF786000BF0C37BD4680BC704724
:102EFC0070B500260C4D0D4C641BA410A64209D1D4
:102F0C0000F022F800260A4D0A4C641BA410A642BD
:102F1C0005D170BD55F8043B98470136EEE755F8DE
:102F2C00043B98470136F2E7902F0008902F0008D9
:102F3C00902F0008942F000803460244934200D1BE
:102F4C00704703F8011BF9E7F8B500BFF8BC08BCE3
:102F5C009E467047F8B500BFF8BC08BC9E4670474B
:102F6C00000000000000000001020304060708092D
:102F7C0002030405060708090A0B0C0D0E0F1010AE
:042F8C00010200003E
:042F90003101000803
:042F94000D01000823
:102F9800000C0140000C0140000C0140010002003F
:102FA800040000000400000003000000020000000C
:102FB800050000000C00000000127A000A00000062
:082FC8001000000001000000F0
:04000005080018DDFA
:00000001FF
