:020000040800F2
:1000000000280020951A0008251A00082B1A00085D
:10001000311A0008371A00083D1A000800000000D5
:10002000000000000000000000000000431A00086B
:100030004F1A0008000000005B1A0008671A000849
:10004000DD1A0008DD1A0008DD1A0008DD1A0008B4
:10005000DD1A0008DD1A0008DD1A0008DD1A0008A4
:10006000DD1A0008DD1A0008DD1A0008DD1A000894
:10007000DD1A0008DD1A0008DD1A0008DD1A000884
:10008000DD1A0008DD1A0008DD1A0008DD1A000874
:10009000DD1A0008DD1A0008DD1A0008DD1A000864
:1000A000DD1A0008DD1A0008DD1A0008DD1A000854
:1000B000751A0008DD1A000800000000DD1A0008AB
:1000C000DD1A00080000000000000000DD1A000832
:1000D00000000000DD1A0008DD1A00080000000022
:1000E000DD1A0008DD1A0008DD1A00080000000013
:1000F0000000000000000000000000000000000000
:0C01000000000000000000005FF808F1A3
:10010C0010B5054C237833B9044B13B10448AFF345
:10011C0000800123237010BD34000020000000007B
:10012C000C31000808B5034B1BB103490348AFF36E
:10013C00008008BD00000000380000200C310008D1
:10014C0080B584B000AF0023FB73C0E1FB7B994A00
:10015C00D35C022B00F07481022B00F3B581002BD1
:10016C0002D0012B0DD0AFE1FB7B184600F050FC08
:10017C000346002B00F0A381FB7B8E4A0121D15456
:10018C009DE1FB7B184600F043FC0346002B40F03E
:10019C004B81FB7B874A0021D154874B1B68012B79
:1001AC0015D1FB7B002B40F08C8100F0B5FC824B11
:1001BC0002221A60814B1B68814A1360814B1B68B9
:1001CC00814A1360814B1B68814A136079E17A4B39
:1001DC001B68022B46D1FB7B002B11D100F09CFC41
:1001EC00754B03221A60754B1B68754A1360754B6F
:1001FC001B68754A1360754B1B68754A136060E188
:10020C00FB7B012B0DD16E4B1B6801336C4A1360C9
:10021C006B4B1B68632B40F35481694B00221A60B3
:10022C004FE1FB7B022B40F04C81654B1A68634B12
:10023C001B68D31A3B60654B1B683A6813443B60E0
:10024C00624B1B68002B40F33C81604B1B68632B9B
:10025C0000F337815A4B1B68584A13605B4A3B6862
:10026C0013602EE1544B1B68032B40D1FB7B002BFE
:10027C0011D100F051FC504B04221A604F4B1B68FB
:10028C004F4A13604F4B1B684F4A13604F4B1B6810
:10029C004F4A136015E1FB7B012B05D14A4B1B68C0
:1002AC000133494A13600CE1FB7B022B40F00981BE
:1002BC00454B1A68434B1B68D31A7B603F4B1A683B
:1002CC007B681344632B00F3FC803C4B1A687B68FF
:1002DC001344022B40F3F580384B1A687B681344A7
:1002EC00364A1360384B1B68364A1360E9E0324BD0
:1002FC001B68042B40F0E580FB7B002B51D12E4B6F
:10030C0001221A602D4B1B682D4A13602D4B1B6864
:10031C002D4A13602D4B1B682D4A1360274B1A680E
:10032C00284B1B681A44294B1B681344294A136039
:10033C00224B1A68234B1B681A44244B1B6813442A
:10034C00254A136001224FF48061244801F0C3FE5A
:10035C0000224FF40061214801F0BDFE01224FF450
:10036C0080511E4801F0B7FE00224FF400511B488B
:10037C0001F0B1FE01224FF48041184801F0ABFEB0
:10038C0001224FF40041154801F0A5FE0F4B1B68EC
:10039C00013B134A1360094B1B68013B114A136064
:1003AC008FE0FB7B012B1FD1094B1B680133084AE3
:1003BC00136086E050000020140000202000002074
:1003CC00980000201C000020E400002018000020F1
:1003DC0094000020840000208C000020000C0140C0
:1003EC009000002088000020FB7B022B69D13C4B45
:1003FC001A683C4B1B68D31ABB603B4B1A68BB6832
:10040C001344632B5DDC384B1A68BB681344022B16
:10041C0057DD354B1A68BB681344334A1360304BB5
:10042C001B68304A13604CE0FB7B184600F00AFB5B
:10043C000346002B45D0FB7B2C4A0221D15440E0D3
:10044C00FB7B184600F0E4FA0346002B03D1FB7B40
:10045C00264A0021D154FB7B012B34D1244B1B6841
:10046C00022B0BD1234B1B680133224A1360214B07
:10047C001B68632B02DD1F4B00221A601C4B1B6890
:10048C00032B0BD11C4B1B6801331B4A13601A4BFB
:10049C001B68632B02DD184B00221A60144B1B687F
:1004AC00042B10D10E4B1B6801330D4A13600C4BFF
:1004BC001B68632B07DD0A4B00221A6003E000BFA8
:1004CC0002E000BF00E000BFFB7B0133FB73FB7B52
:1004DC00022B7FF63BAE00BF00BF1037BD4680BD80
:1004EC009400002018000020200000205000002064
:1004FC001400002098000020E400002080B500AF1C
:10050C006F4B1B68012B40F0D8804FF400416D48B5
:10051C0001F0F9FD6C4B1B68013B6B4A13606B4B94
:10052C001B68013B694A1360694B1A68694B1B686D
:10053C001A44654B1B689A4215D1664B1B68664A78
:10054C00136000224FF48051644801F0C4FD012275
:10055C004FF40061614801F0BEFD01224FF480614F
:10056C005E4801F0B8FD5E4B1A685A4B1B681A4482
:10057C00564B1B689A4215D1594B1B68594A13604C
:10058C0000224FF48041554801F0A5FD01224FF4A3
:10059C000041524801F09FFD01224FF400514F4899
:1005AC0001F099FD484B1A68494B1B689A4215D1CA
:1005BC00474B1B68484A136001224FF4805147484F
:1005CC0001F089FD01224FF40061444801F083FDE4
:1005DC0000224FF48061414801F07DFD3B4B1A68CD
:1005EC003C4B1B689A4215D13A4B1B683D4A136031
:1005FC0001224FF48041394801F06DFD00224FF487
:10060C000041364801F067FD01224FF40051334898
:10061C0001F061FD2C4B1B68002B1FD1304B1B686C
:10062C002D4A13602E4B1A68294B1B681A44294B10
:10063C001B681344244A136001224FF4805127484D
:10064C0001F049FD00224FF40061244801F043FD04
:10065C0001224FF48061214801F03DFD1B4B1B68CA
:10066C00002B1FD11A4B1B681E4A13601C4B1A68B7
:10067C00174B1B681A44174B1B681344134A13601F
:10068C0001224FF48041154801F025FD01224FF461
:10069C000041124801F01FFD00224FF400510F4899
:1006AC0001F019FD0C4B1B68013B0B4A13600D4B01
:1006BC001B68013B0B4A136000E000BF00BF80BD0C
:1006CC001400002000080140840000208C00002051
:1006DC00200000201C00002090000020000C014095
:1006EC00180000208800002080B500AF894B1B68E3
:1006FC00013B032B00F2028101A252F823F000BF50
:10070C001D07000881070008050800088708000875
:10071C00814B1B68184600F029FA804B1B68184661
:10072C0000F0AAF97D4B1B687D4A52F8233018461D
:10073C0000F064FA7B4B1B68184600F03BFA774BD1
:10074C001B68184600F0C0F9744B1B68764A52F8C7
:10075C002330184600F012FC704B1B6801336F4AB3
:10076C0013606E4B1B68012B40F3CA806B4B00224D
:10077C001A60C5E06D4B1B68002B09D14FF48061EA
:10078C006B4801F0C0FC4FF40051694801F0BBFC10
:10079C00684B1B68184600F0E9F9604B1B6818465B
:1007AC0000F06AF95D4B1B685D4A52F8233018461D
:1007BC0000F024FA012000F087F9564B1B6818460C
:1007CC0000F0DCFB554B1B680133544A1360534B50
:1007DC001B68012B02DD514B00221A60534B1B6826
:1007EC00013B524A1360514B1B68002B80F28A80EC
:1007FC004E4B0C221A6085E04C4B1B68002B09D128
:10080C004FF480514A4801F07EFC4FF400414848B7
:10081C0001F079FC484B1B68184600F0A7F93F4BD8
:10082C001B68184600F028F93C4B1B683C4A52F8F0
:10083C002330184600F0E2F9012000F045F9354B61
:10084C001B68184600F09AFB344B1B680133334A83
:10085C001360324B1B68012B02DD304B00221A60F7
:10086C00324B1B68013B314A1360304B1B68002B29
:10087C004ADA2E4B0C221A6046E02C4B1B68002BDC
:10088C0009D14FF400612A4801F03DFC4FF480413E
:10089C00274801F038FC294B1B68184600F066F914
:1008AC001E4B1B68184600F0E7F81C4B1B681C4AD3
:1008BC0052F82330184600F0A1F9012000F004F999
:1008CC00144B1B68184600F059FB144B1B68013382
:1008DC00124A1360114B1B68012B02DD0F4B0022D7
:1008EC001A60124B1B68013B104A13600F4B1B68BC
:1008FC00002B0BDA0D4B0C221A6007E000BF06E050
:10090C0000BF04E000BF02E000BF00E000BF00BF7A
:10091C0080BD00BF14000020900000206C0000205F
:10092C0070000020880000207800002024000020A7
:10093C00000C014098000020E400002094000020EE
:10094C0090B583B000AF0023FB714AE0FA79FB79D4
:10095C002849895C284AD154FB79284A52F823202B
:10096C00FB79274931F81330FC791946104601F010
:10097C009BFB03461A461F4B1A55FB791D4AD25C4A
:10098C00FB791D49CB5C9A4205D1FA79FB7919495F
:10099C00895C1C4AD154FB791A4AD35C002B14D1C4
:1009AC00FB79194A32F81330632B09D8FB79164AB4
:1009BC0032F81320013291B2134A22F813100DE0D1
:1009CC00FB79124A0121D15408E0FB790E4A00212F
:1009DC0022F81310FB790D4A0021D154FB79013315
:1009EC00FB71FB79022BB1D900BF00BF0C37BD46A0
:1009FC0090BD00BF580000205C00002000000020CB
:100A0C000C00002054000020640000206000002036
:100A1C0080B483B000AF0346FB71FB79022B01D984
:100A2C00002307E0FB79064AD35C002B0CBF0123A3
:100A3C000023DBB218460C37BD4680BC704700BFA4
:100A4C005400002080B483B000AF0346FB71FB79E7
:100A5C00022B01D9FF2307E0FB79064AD35C012B5B
:100A6C000CBF01230023DBB218460C37BD4680BCFB
:100A7C00704700BF6000002080B582B000AF786086
:100A8C007B68002B03D07B68012B0BD015E0002278
:100A9C0008210C4801F01FFB01221021094801F02C
:100AAC001AFB0AE001220821064801F014FB00227F
:100ABC001021044801F00FFB00BF00BF0837BD46F2
:100ACC0080BD00BF000C014080B582B000AF7860E3
:100ADC007B68002B03D07B68012B0BD015E0002228
:100AEC0020210C4801F0F7FA01224021094801F0BD
:100AFC00F2FA0AE001222021064801F0ECFA002269
:100B0C004021044801F0E7FA00BF00BF0837BD469A
:100B1C0080BD00BF000C014080B500AF01224FF436
:100B2C008061114801F0D7FA01224FF400610E48A0
:100B3C0001F0D1FA01224FF480510B4801F0CBFAAD
:100B4C0001224FF40051084801F0C5FA01224FF47C
:100B5C008041054801F0BFFA01224FF400410248E0
:100B6C0001F0B9FA00BF80BD000C014080B483B025
:100B7C0000AF78607B680D4A82FB03129210DB1782
:100B8C00D31A0B4A13607968084B83FB01239A1024
:100B9C00CB17D21A13469B0013445B00CA1A044BA2
:100BAC005A6000BF0C37BD4680BC704767666666EE
:100BBC007000002080B483B000AF78607B680D4A71
:100BCC0082FB03129210DB17D31A0B4A136079685D
:100BDC00084B83FB01239A10CB17D21A13469B00A8
:100BEC0013445B00CA1A044B5A6000BF0C37BD4655
:100BFC0080BC7047676666667800002080B582B05E
:100C0C0000AF78607B68012B23D101220221C04800
:100C1C0001F061FA00220421BD4801F05CFA0022C7
:100C2C000821BB4801F057FA01221021B84801F005
:100C3C0052FA01222021B64801F04DFA012240213E
:100C4C00B34801F048FA01228021B14801F043FA7F
:100C5C008EE17B68022B23D100220221AC4801F0EB
:100C6C003AFA00220421AA4801F035FA012208219F
:100C7C00A74801F030FA00221021A54801F02BFA08
:100C8C0000222021A24801F026FA01224021A0488E
:100C9C0001F021FA002280219D4801F01CFA67E145
:100CAC007B68032B23D100220221994801F013FA0F
:100CBC0000220421964801F00EFA002208219448E3
:100CCC0001F009FA00221021914801F004FA0122E6
:100CDC0020218F4801F0FFF9012240218C4801F0BE
:100CEC00FAF9002280218A4801F0F5F940E17B688D
:100CFC00002B23D100220221854801F0ECF90022BF
:100D0C000421834801F0E7F900220821804801F012
:100D1C00E2F9002210217E4801F0DDF900222021A9
:100D2C007B4801F0D8F900224021794801F0D3F931
:100D3C0001228021764801F0CEF919E17B68042B61
:100D4C0023D101220221724801F0C5F900220421AD
:100D5C006F4801F0C0F9002208216D4801F0BBF981
:100D6C00012210216A4801F0B6F9012220216848BD
:100D7C0001F0B1F900224021654801F0ACF90022E4
:100D8C008021634801F0A7F9F2E07B68052B23D1A1
:100D9C00002202215E4801F09EF9012204215C48E8
:100DAC0001F099F900220821594801F094F9002228
:100DBC001021574801F08FF901222021544801F0ED
:100DCC008AF900224021524801F085F90022802145
:100DDC004F4801F080F9CBE07B68062B23D1002231
:100DEC0002214B4801F077F901220421484801F017
:100DFC0072F900220821464801F06DF900221021F9
:100E0C00434801F068F900222021414801F063F9C0
:100E1C00002240213E4801F05EF9002280213C482E
:100E2C0001F059F9A4E07B68072B23D100220221A1
:100E3C00374801F050F900220421354801F04BF9F4
:100E4C0000220821324801F046F9012210213048D5
:100E5C0001F041F9012220212D4801F03CF9012239
:100E6C0040212B4801F037F901228021284801F05C
:100E7C0032F97DE07B68082B23D100220221244823
:100E8C0001F029F900220421214801F024F9002263
:100E9C0008211F4801F01FF9002210211C4801F005
:100EAC001AF9002220211A4801F015F900224021DC
:100EBC00174801F010F900228021154801F00BF9B8
:100ECC0056E07B68092B25D100220221104801F045
:100EDC0002F9002204210E4801F0FDF8002208213D
:100EEC000B4801F0F8F800221021094801F0F3F842
:100EFC0001222021064801F0EEF80022402104488E
:100F0C0001F0E9F800228021014801F0E4F82FE01B
:100F1C00000801407B680A2B2AD101224FF4807112
:100F2C00154801F0D8F801224FF40071124801F075
:100F3C00D2F801224FF480610F4801F0CCF8012265
:100F4C004FF400610C4801F0C6F801224FF48051B7
:100F5C00094801F0C0F801224FF40051064801F095
:100F6C00BAF801224FF48041034801F0B4F800BFF5
:100F7C000837BD4680BD00BF0008014080B582B077
:100F8C0000AF78607B68012B2AD101224FF480716D
:100F9C00CB4801F0A0F800224FF40071C84801F0D2
:100FAC009AF800224FF48061C54801F094F80122B0
:100FBC004FF40061C24801F08EF801224FF48051C9
:100FCC00BF4801F088F801224FF40051BC4801F0F1
:100FDC0082F801224FF48041B94801F07CF8CDE150
:100FEC007B68022B2AD100224FF48071B44801F0A7
:100FFC0072F800224FF40071B14801F06CF8012234
:10100C004FF48061AE4801F066F800224FF40061A5
:10101C00AB4801F060F800224FF48051A84801F071
:10102C005AF801224FF40051A54801F054F800225F
:10103C004FF48041A24801F04EF89FE17B68032BEE
:10104C002AD100224FF480719D4801F044F800220F
:10105C004FF400719A4801F03EF800224FF4806181
:10106C00974801F038F800224FF40061944801F0E1
:10107C0032F801224FF48051914801F02CF80122F2
:10108C004FF400518E4801F026F800224FF48041B5
:10109C008B4801F020F871E17B68002B2AD10022EB
:1010AC004FF48071864801F016F800224FF400715D
:1010BC00834801F010F800224FF48061804801F061
:1010CC000AF800224FF400617D4801F004F8002278
:1010DC004FF480517A4800F0FEFF00224FF400518B
:1010EC00774800F0F8FF01224FF48041744800F07B
:1010FC00F2FF43E17B68042B2AD101224FF480716B
:10110C006F4800F0E8FF00224FF400716C4800F0CB
:10111C00E2FF00224FF48061694800F0DCFF0122FD
:10112C004FF40061664800F0D6FF01224FF4805165
:10113C00634800F0D0FF00224FF40051604800F0EB
:10114C00CAFF00224FF480415D4800F0C4FF15E156
:10115C007B68052B2AD100224FF48071584800F08F
:10116C00BAFF01224FF40071554800F0B4FF002281
:10117C004FF48061524800F0AEFF00224FF4006142
:10118C004F4800F0A8FF01224FF480514C4800F06A
:10119C00A2FF00224FF40051494800F09CFF0022AE
:1011AC004FF48041464800F096FFE7E07B68062B41
:1011BC002AD100224FF48071414800F08CFF0122AB
:1011CC004FF400713E4800F086FF00224FF480611E
:1011DC003B4800F080FF00224FF40061384800F0DB
:1011EC007AFF00224FF48051354800F074FF002242
:1011FC004FF40051324800F06EFF00224FF4804152
:10120C002F4800F068FFB9E07B68072B2AD1002239
:10121C004FF480712A4800F05EFF00224FF40071F9
:10122C00274800F058FF00224FF48061244800F05A
:10123C0052FF01224FF40061214800F04CFF0122C3
:10124C004FF480511E4800F046FF01224FF400512C
:10125C001B4800F040FF01224FF48041184800F079
:10126C003AFF8BE07B68082B2CD100224FF4807165
:10127C00134800F030FF00224FF40071104800F0CA
:10128C002AFF00224FF480610D4800F024FF002259
:10129C004FF400610A4800F01EFF00224FF4805109
:1012AC00074800F018FF00224FF40051044800F0EA
:1012BC0012FF00224FF48041014800F00CFF5DE06A
:1012CC00000801407B68092B2AD100224FF4807161
:1012DC002C4800F000FF00224FF40071294800F068
:1012EC00FAFE00224FF48061264800F0F4FE002242
:1012FC004FF40061234800F0EEFE01224FF48051C0
:10130C00204800F0E8FE00224FF400511D4800F088
:10131C00E2FE00224FF480411A4800F0DCFE2DE082
:10132C007B680A2B2AD101224FF48071154800F0FA
:10133C00D2FE01224FF40071124800F0CCFE0122C3
:10134C004FF480610F4800F0C6FE01224FF400619B
:10135C000C4800F0C0FE01224FF48051094800F007
:10136C00BAFE01224FF40051064800F0B4FE0122EF
:10137C004FF48041034800F0AEFE00BF0837BD4675
:10138C0080BD00BF0008014080B500AFFFF7D8FA60
:10139C00FEF7D6FE00BF80BD80B500AF00F09AFB13
:1013AC0000F062F800F0E8F800F09AF800F05AF952
:1013BC00012201211E4800F0A9F9642264211D4874
:1013CC0000F0A4F9042204211B4800F09FF91B48EB
:1013DC0001F0DEFA1A4B1A681A4B1B681A441A4BA6
:1013EC001B681344194A1360184B1B68184A136086
:1013FC00134B1B68174A1360134B1B68164A136078
:10140C00104B1B68154A13600D4B1B68013B144AAB
:10141C0013600D4B1B68013B124A1360084B1A6892
:10142C00084B1B681344084A136000F03DFAFCE7B4
:10143C009513000809050008F50600089C0000201B
:10144C00180000201C000020200000208400002038
:10145C008C0000209400002098000020E400002064
:10146C00900000208800002080B590B000AF07F1FC
:10147C00180328220021184601F03AFE3B1D0022D9
:10148C001A605A609A60DA601A610223BB61012308
:10149C00BB621023FB6200237B6307F11803184621
:1014AC0000F04AFE0346002B01D000F0D6F80F23C3
:1014BC007B600023BB600023FB6000233B610023A7
:1014CC007B613B1D0021184601F0B6F80346002B4A
:1014DC0001D000F0C2F800BF4037BD4680BD00000F
:1014EC0080B586B000AF07F1080300221A605A607D
:1014FC009A60DA603B4600221A605A601D4B4FF02E
:10150C0080421A601B4B41F63F725A60194B002205
:10151C009A60184B0922DA60164B00221A61154B9F
:10152C0000229A61134801F0E3F90346002B01D025
:10153C0000F093F84FF48053BB6007F10803194691
:10154C000C4801F061FB0346002B01D000F085F83C
:10155C0000233B6000237B603B461946054801F0A5
:10156C0039FD0346002B01D000F077F800BF183787
:10157C00BD4680BD9C00002080B586B000AF07F151
:10158C00080300221A605A609A60DA60284B9B6943
:10159C00274A43F004039361254B9B6903F0040332
:1015AC007B607B68224B9B69214A43F00803936163
:1015BC001F4B9B6903F008033B603B6800224FF60E
:1015CC00FE711C4800F087FD00224FF678411A4846
:1015DC0000F081FD4FF6FE73BB600123FB6000231E
:1015EC003B6102237B6107F108031946114800F0A7
:1015FC00E1FB0723BB600023FB6000233B6107F189
:10160C00080319460C4800F0D5FB4FF67843BB6035
:10161C000123FB6000233B6102237B6107F108037C
:10162C001946054800F0C6FB00BF1837BD4680BD03
:10163C000010024000080140000C014080B582B04F
:10164C0000AF78607B681B68B3F1804F01D100F06C
:10165C00FFF800BF0837BD4680BD80B400AF72B63E
:10166C0000BFFEE780B483B000AF00237B603DE099
:10167C0024497A6813465B001344DB000B440022B8
:10168C001A6020497A6813465B001344DB000B4454
:10169C00143300221A601B497A6813465B0013440A
:1016AC00DB000B44043300221A6016497A68134697
:1016BC005B001344DB000B44083300221A60114911
:1016CC007A6813465B001344DB000B440C33002296
:1016DC001A700C497A6813465B001344DB000B4408
:1016EC0010337A681A607B6801337B607B68272B28
:1016FC00BED9054B00221A6000BF0C37BD4680BC1A
:10170C00704700BFE80000208000002080B586B044
:10171C0000AFF860B9607A6000237B6102E07B69FE
:10172C0001337B617B69272B09D817497A691346EA
:10173C005B001344DB000B441B68002BEFD17B696F
:10174C00282B01D128231AE07A6913465B00134435
:10175C00DB000D4A13443B613B69FA681A603B6934
:10176C00BA685A603B697A689A603B6900221A73BE
:10177C003B6900225A61386900F008F87B69184609
:10178C001837BD4680BD00BFE800002080B485B08E
:10179C0000AF78602D4B1B68002B06D07B685A6815
:1017AC002A4B1B685B689A4214D2284B1B68002B8F
:1017BC0008D0264B1B6859687B685A68234B1B68FA
:1017CC008A1A5A60214B1A687B685A611F4A7B68D7
:1017DC00136035E01D4B1B68FB607B685A68FB6827
:1017EC005B68D21A7B685A600AE07B685A68FB68AF
:1017FC005B695B68D21A7B685A60FB685B69FB604B
:10180C00FB685B69002B06D07B685A68FB685B69D8
:10181C005B689A42E9D2FB685B69002B08D0FB68D5
:10182C005B6959687B685A68FB685B698A1A5A60FD
:10183C00FB685A697B685A61FB687A685A6100BF19
:10184C0000BF1437BD4680BC704700BF800000202D
:10185C0080B483B000AF134B1B68002B1DD0114B11
:10186C001B685A68013A5A600DE00E4B1B68012246
:10187C001A730C4B1B687B607B685B69094A1360AD
:10188C007B6800225A61074B1B68002B06D0054B66
:10189C001B685B68002BE8D000E000BF0C37BD462E
:1018AC0080BC70478000002080B582B000AF002360
:1018BC007B6051E02C497A6813465B001344DB00D3
:1018CC000B440C331B78012B43D127497A68134600
:1018DC005B001344DB000B441B68984722497A6871
:1018EC0013465B001344DB000B440C3300221A70CC
:1018FC001D497A6813465B001344DB000B44083324
:10190C001B68002B1CD018497A6813465B001344E3
:10191C00DB000B440833196813487A6813465B00E4
:10192C001344DB000344043319607A6813465B00EC
:10193C001344DB000C4A13441846FFF727FF08E05A
:10194C0009497A6813465B001344DB000B44002200
:10195C001A607B6801337B607B68272BAAD900BF98
:10196C0000BF0837BD4680BDE800002080B485B0BC
:10197C0000AF154B9B69144A43F001039361124B62
:10198C009B6903F00103BB60BB680F4BDB690E4A1C
:10199C0043F08053D3610C4BDB6903F080537B60C5
:1019AC007B680A4B5B68FB60FB6823F0E063FB60C1
:1019BC00FB6843F08063FB60044AFB68536000BF24
:1019CC001437BD4680BC7047001002400000014037
:1019DC0080B584B000AF78607B681B68B3F1804F32
:1019EC0013D10C4BDB690B4A43F00103D361094B58
:1019FC00DB6903F00103FB60FB68002200211C2063
:101A0C0000F0A1F91C2000F0BAF900BF1037BD4658
:101A1C0080BD00BF0010024080B400AFFEE780B470
:101A2C0000AFFEE780B400AFFEE780B400AFFEE786
:101A3C0080B400AFFEE780B400AF00BFBD4680BCF1
:101A4C00704780B400AF00BFBD4680BC704780B407
:101A5C0000AF00BFBD4680BC704780B500AF00F042
:101A6C007FF800BF80BD000080B500AF024800F0D9
:101A7C00DBFF00BF80BD00BF9C00002080B400AF26
:101A8C0000BFBD4680BC7047FFF7F8FF0B480C4900
:101A9C000C4A002302E0D458C4500433C4188C42BE
:101AAC00F9D3094A094C002301E013600432A24225
:101ABC00FBD301F0F9FAFFF76FFC70470000002030
:101ACC00340000205031000834000020AC04002009
:101ADC00FEE7000080B500AF084B1B68074A43F0D7
:101AEC0010031360032000F023F90F2000F008F816
:101AFC00FFF73CFF0023184680BD00BF00200240CA
:101B0C0080B582B000AF7860124B1A68124B1B780C
:101B1C0019464FF47A73B3FBF1F3B2FBF3F31846A7
:101B2C0000F03BF90346002B01D001230EE07B684B
:101B3C000F2B0AD8002279684FF0FF3000F003F920
:101B4C00064A7B681360002300E00123184608371F
:101B5C00BD4680BD28000020300000202C00002055
:101B6C0080B400AF054B1B781A46054B1B68134419
:101B7C00034A136000BFBD4680BC70473000002094
:101B8C00A804002080B400AF024B1B681846BD4669
:101B9C0080BC7047A804002080B485B000AF78608A
:101BAC007B6803F00703FB600C4BDB68BB60BA6817
:101BBC004FF6FF031340BB60FB681A02BB6813436C
:101BCC0043F0BF6343F40033BB60044ABB68D3608B
:101BDC0000BF1437BD4680BC704700BF00ED00E06D
:101BEC0080B400AF044BDB681B0A03F007031846F4
:101BFC00BD4680BC704700BF00ED00E080B483B0F0
:101C0C0000AF0346FB7197F90730002B0BDBFB7918
:101C1C0003F01F02064997F907305B09012000FA0F
:101C2C0002F241F8232000BF0C37BD4680BC704740
:101C3C0000E100E080B483B000AF03463960FB7173
:101C4C0097F90730002B0ADB3B68DAB20C4997F99D
:101C5C0007301201D2B20B4483F800230AE03B6830
:101C6C00DAB20849FB7903F00F03043B1201D2B23C
:101C7C000B441A7600BF0C37BD4680BC704700BFC2
:101C8C0000E100E000ED00E080B489B000AFF86046
:101C9C00B9607A60FB6803F00703FB61FB69C3F171
:101CAC000703042B28BF0423BB61FB690433062BF9
:101CBC0002D9FB69033B00E000237B614FF0FF324C
:101CCC00BB6902FA03F3DA43BB681A407B699A409A
:101CDC004FF0FF317B6901FA03F3D9437B680B406A
:101CEC00134318462437BD4680BC704780B582B07C
:101CFC0000AF78607B68013BB3F1807F01D3012397
:101D0C000FE00A4A7B68013B53600F214FF0FF3014
:101D1C00FFF790FF054B00229A60044B07221A60D4
:101D2C00002318460837BD4680BD00BF10E000E018
:101D3C0080B582B000AF78607868FFF72DFF00BFE8
:101D4C000837BD4680BD80B586B000AF0346B9608C
:101D5C007A60FB7300237B61FFF742FF78617A683E
:101D6C00B9687869FFF790FF024697F90F30114672
:101D7C001846FFF75FFF00BF1837BD4680BD80B522
:101D8C0082B000AF0346FB7197F907301846FFF796
:101D9C0035FF00BF0837BD4680BD80B582B000AFAF
:101DAC0078607868FFF7A2FF034618460837BD46EF
:101DBC0080BD000080B48BB000AF78603960002328
:101DCC007B6200233B6248E101227B6A02FA03F347
:101DDC00FB613B681B68FA691340BB61BA69FB691C
:101DEC009A4240F037813B685B68A34A93425ED0CD
:101DFC00A14A934275D8A14A934258D09F4A934224
:101E0C006FD89F4A934252D09D4A934269D89D4ABB
:101E1C0093424CD09B4A934263D89B4A934246D000
:101E2C00994A93425DD8122B2AD8122B59D801A269
:101E3C0052F823F0BB1E0008951E0008A71E0008D0
:101E4C00E91E0008EF1E0008EF1E0008EF1E000838
:101E5C00EF1E0008EF1E0008EF1E0008EF1E000822
:101E6C00EF1E0008EF1E0008EF1E0008EF1E000812
:101E7C00EF1E0008EF1E00089D1E0008B11E000892
:101E8C00824A934213D02CE03B68DB683B6229E02A
:101E9C003B68DB6804333B6224E03B68DB68083357
:101EAC003B621FE03B68DB680C333B621AE03B682B
:101EBC009B68002B02D104233B6213E03B689B68B8
:101ECC00012B05D108233B627B68FA691A6109E092
:101EDC0008233B627B68FA695A6103E000233B628A
:101EEC0000E000BFBB69FF2B01D87B6801E07B6879
:101EFC0004337B61BB69FF2B02D87B6A9B0002E039
:101F0C007B6A083B9B003B617B691A680F213B692C
:101F1C0001FA03F3DB431A40396A3B6901FA03F314
:101F2C001A437B691A603B685B6803F08053002B93
:101F3C0000F09080564B9B69554A43F00103936126
:101F4C00534B9B6903F00103BB60BB68514A7B6A2E
:101F5C009B08023352F82330FB607B6A03F00303C7
:101F6C009B000F2202FA03F3DB43FA681340FB6079
:101F7C007B68494A93420DD07B68484A934207D00C
:101F8C007B68474A934201D1022304E0032302E019
:101F9C00012300E000237A6A02F0030292009340CE
:101FAC00FA681343FB603B497B6A9B080233FA686F
:101FBC0041F823203B685B6803F48013002B06D0A8
:101FCC00384B9A683749BB6913438B6006E0354B35
:101FDC009A68BB69DB43334913408B603B685B6891
:101FEC0003F40013002B06D02E4BDA682D49BB6985
:101FFC001343CB6006E02B4BDA68BB69DB43294902
:10200C001340CB603B685B6803F40033002B06D0B5
:10201C00244B5A682349BB6913434B6006E0214BA0
:10202C005A68BB69DB431F4913404B603B685B68D4
:10203C0003F48033002B06D01A4B1A681949BB697C
:10204C0013430B6006E0174B1A68BB69DB43154959
:10205C0013400B607B6A01337B623B681A687B6AB6
:10206C0022FA03F3002B7FF4AFAE00BF00BF2C3776
:10207C00BD4680BC704700BF00003210000031101C
:10208C00000022100000211000001210000011109E
:10209C00001002400000014000080140000C01400B
:1020AC00001001400004014080B485B000AF78609E
:1020BC000B467B807B689A687B881340002B02D090
:1020CC000123FB7301E00023FB73FB7B18461437E1
:1020DC00BD4680BC704780B483B000AF78600B46BF
:1020EC007B8013467B707B78002B03D07A887B68CF
:1020FC001A6103E07B881A047B681A6100BF0C37F5
:10210C00BD4680BC704780B485B000AF78600B468C
:10211C007B807B68DB68FB607A88FB6813401A0461
:10212C00FB68D9437B880B401A437B681A6100BF5C
:10213C001437BD4680BC704780B586B000AF786060
:10214C007B68002B01D101236CE27B681B6803F0D8
:10215C000103002B00F08780924B5B6803F00C03AB
:10216C00042B0CD08F4B5B6803F00C03082B12D1A3
:10217C008C4B5B6803F48033B3F5803F0BD1894BF8
:10218C001B6803F40033002B6CD07B685B68002B5E
:10219C0068D1012346E27B685B68B3F5803F06D1CA
:1021AC00804B1B687F4A43F4803313602EE07B68BE
:1021BC005B68002B0CD17B4B1B687A4A23F4803371
:1021CC001360784B1B68774A23F4802313601DE05F
:1021DC007B685B68B3F5A02F0CD1724B1B68714AFE
:1021EC0043F4802313606F4B1B686E4A43F48033B7
:1021FC0013600BE06B4B1B686A4A23F4803313604B
:10220C00684B1B68674A23F4802313607B685B6808
:10221C00002B13D0FFF7B6FC386108E0FFF7B2FCD7
:10222C0002463B69D31A642B01D90323FAE15D4BB7
:10223C001B6803F40033002BF0D014E0FFF7A2FC72
:10224C00386108E0FFF79EFC02463B69D31A642B09
:10225C0001D90323E6E1534B1B6803F40033002B35
:10226C00F0D100E000BF7B681B6803F00203002B79
:10227C0063D04C4B5B6803F00C03002B0BD0494B29
:10228C005B6803F00C03082B1CD1464B5B6803F412
:10229C008033002B16D1434B1B6803F00203002B39
:1022AC0005D07B681B69012B01D00123BAE13D4BA2
:1022BC001B6823F0F8027B685B69DB003949134328
:1022CC000B603AE07B681B69002B20D0364B012257
:1022DC001A60FFF757FC386108E0FFF753FC024621
:1022EC003B69D31A022B01D903239BE12D4B1B68AD
:1022FC0003F00203002BF0D02A4B1B6823F0F802EA
:10230C007B685B69DB00274913430B6015E0264BA8
:10231C0000221A60FFF736FC386108E0FFF732FC48
:10232C0002463B69D31A022B01D903237AE11D4BD8
:10233C001B6803F00203002BF0D17B681B6803F0D1
:10234C000803002B3AD07B689B69002B19D0174BE4
:10235C0001221A60FFF716FC386108E0FFF712FC47
:10236C0002463B69D31A022B01D903235AE10D4BC8
:10237C005B6A03F00203002BF0D0012000F09AFA04
:10238C001CE00A4B00221A60FFF7FCFB38610FE0DF
:10239C00FFF7F8FB02463B69D31A022B08D903233B
:1023AC0040E100BF00100240000042428004424263
:1023BC009E4B5B6A03F00203002BE9D17B681B6820
:1023CC0003F00403002B00F0A6800023FB75974B51
:1023DC00DB6903F08053002B0DD1944BDB69934ADE
:1023EC0043F08053D361914BDB6903F08053BB60A6
:1023FC00BB680123FB758E4B1B6803F48073002BA9
:10240C0018D18B4B1B688A4A43F480731360FFF717
:10241C00B9FB386108E0FFF7B5FB02463B69D31AFC
:10242C00642B01D90323FDE0814B1B6803F48073FB
:10243C00002BF0D07B68DB68012B06D17B4B1B6A31
:10244C007A4A43F0010313622DE07B68DB68002BB2
:10245C000CD1764B1B6A754A23F001031362734B44
:10246C001B6A724A23F0040313621CE07B68DB686E
:10247C00052B0CD16D4B1B6A6C4A43F004031362A1
:10248C006A4B1B6A694A43F0010313620BE0674B0A
:10249C001B6A664A23F001031362644B1B6A634A8E
:1024AC0023F0040313627B68DB68002B15D0FFF765
:1024BC0069FB38610AE0FFF765FB02463B69D31AFA
:1024CC0041F28832934201D90323ABE0574B1B6A8C
:1024DC0003F00203002BEED014E0FFF753FB38613E
:1024EC000AE0FFF74FFB02463B69D31A41F28832F0
:1024FC00934201D9032395E04C4B1B6A03F0020372
:10250C00002BEED1FB7D012B05D1484BDB69474AF3
:10251C0023F08053D3617B68DB69002B00F0818052
:10252C00424B5B6803F00C03082B61D07B68DB69C2
:10253C00022B46D13F4B00221A60FFF723FB386178
:10254C0008E0FFF71FFB02463B69D31A022B01D9A7
:10255C00032367E0354B1B6803F00073002BF0D1AD
:10256C007B681B6AB3F5803F08D1304B5B6823F462
:10257C0000327B689B682D4913434B602B4B5B6887
:10258C0023F474127B68196A7B685B6A0B432749D6
:10259C0013434B60274B01221A60FFF7F3FA3861A3
:1025AC0008E0FFF7EFFA02463B69D31A022B01D978
:1025BC00032337E01D4B1B6803F00073002BF0D096
:1025CC002FE01C4B00221A60FFF7DCFA386108E0A0
:1025DC00FFF7D8FA02463B69D31A022B01D9032321
:1025EC0020E0124B1B6803F00073002BF0D118E0B5
:1025FC007B68DB69012B01D1012313E00B4B5B687A
:10260C00FB60FB6803F480327B681B6A9A4206D13C
:10261C00FB6803F470127B685B6A9A4201D0012359
:10262C0000E0002318461837BD4680BD001002405C
:10263C00007000406000424280B584B000AF78600A
:10264C0039607B68002B01D10123D0E06A4B1B68F9
:10265C0003F007033A689A4210D9674B1B6823F0C2
:10266C00070265493B6813430B60634B1B6803F01F
:10267C0007033A689A4201D00123B8E07B681B68D3
:10268C0003F00203002B20D07B681B6803F00403CB
:10269C00002B05D0594B5B68584A43F4E0635360F8
:1026AC007B681B6803F00803002B05D0534B5B6859
:1026BC00524A43F460535360504B5B6823F0F00272
:1026CC007B689B684D4913434B607B681B6803F028
:1026DC000103002B40D07B685B68012B07D1474B73
:1026EC001B6803F40033002B15D101237FE07B68BA
:1026FC005B68022B07D1414B1B6803F00073002B66
:10270C0009D1012373E03D4B1B6803F00203002B3E
:10271C0001D101236BE0394B5B6823F003027B682A
:10272C005B68364913434B60FFF72CFAF8600AE0FC
:10273C00FFF728FA0246FB68D31A41F2883293421B
:10274C0001D9032353E02D4B5B6803F00C027B682B
:10275C005B689B009A42EBD1274B1B6803F0070385
:10276C003A689A4210D2244B1B6823F00702224984
:10277C003B6813430B60204B1B6803F007033A685C
:10278C009A4201D0012332E07B681B6803F00403FA
:10279C00002B08D0194B5B6823F4E0627B68DB6884
:1027AC00164913434B607B681B6803F00803002B2E
:1027BC0009D0124B5B6823F460527B681B69DB0009
:1027CC000E4913434B6000F021F802460B4B5B683B
:1027DC001B0903F00F030A49CB5C22FA03F3094AE5
:1027EC001360094B1B681846FFF78AF9002318463B
:1027FC001037BD4680BD00BF0020024000100240D3
:10280C0024310008280000202C00002080B487B060
:10281C0000AF0023FB600023BB6000237B6100231F
:10282C007B6000233B611E4B5B68FB60FB6803F025
:10283C000C03042B02D0082B03D027E0194B3B616F
:10284C0027E0FB689B0C03F00F03174AD35C7B60FB
:10285C00FB6803F48033002B10D0114B5B685B0CCE
:10286C0003F00103114AD35CBB607B680D4A02FB89
:10287C0003F2BB68B2FBF3F37B6104E07B680C4AA8
:10288C0002FB03F37B617B693B6102E0054B3B611F
:10289C0000BF3B6918461C37BD4680BC704700BF63
:1028AC000010024000127A00343100084431000854
:1028BC0000093D0080B485B000AF78600A4B1B68FE
:1028CC000A4AA2FB03235B0A7A6802FB03F3FB6050
:1028DC0000BFFB685A1EFA60002BF9D100BF00BF85
:1028EC001437BD4680BC704728000020D34D6210C1
:1028FC0080B582B000AF78607B68002B01D10123DA
:10290C0041E07B6893F83D30DBB2002B06D17B684D
:10291C00002283F83C207868FFF75AF87B68022283
:10292C0083F83D207B681A687B680433194610468F
:10293C0000F056FA7B68012283F846207B6801225E
:10294C0083F83E207B68012283F83F207B680122BC
:10295C0083F840207B68012283F841207B680122A8
:10296C0083F842207B68012283F843207B68012294
:10297C0083F844207B68012283F845207B68012280
:10298C0083F83D20002318460837BD4680BD000063
:10299C0080B485B000AF78607B6893F83D30DBB2D3
:1029AC00012B01D0012335E07B68022283F83D2006
:1029BC007B681B68DA687B681B6842F00102DA608E
:1029CC007B681B68164A934209D07B681B68B3F17D
:1029DC00804F04D07B681B68124A934211D17B68EC
:1029EC001B689B6803F00703FB60FB68062B10D089
:1029FC007B681B681A687B681B6842F001021A60CE
:102A0C0007E07B681B681A687B681B6842F0010250
:102A1C001A60002318461437BD4680BC704700BFAF
:102A2C00002C01400004004080B584B000AF7860F9
:102A3C007B681B68DB68FB607B681B681B69BB6081
:102A4C00BB6803F00203002B20D0FB6803F00203E9
:102A5C00002B1BD07B681B686FF002021A617B682D
:102A6C0001221A777B681B689B6903F00303002B18
:102A7C0003D0786800F098F905E0786800F08BF9DD
:102A8C00786800F09AF97B6800221A77BB6803F02B
:102A9C000403002B20D0FB6803F00403002B1BD095
:102AAC007B681B686FF004021A617B6802221A773C
:102ABC007B681B689B6903F44073002B03D0786818
:102ACC0000F072F905E0786800F065F9786800F0BC
:102ADC0074F97B6800221A77BB6803F00803002B9B
:102AEC0020D0FB6803F00803002B1BD07B681B680D
:102AFC006FF008021A617B6804221A777B681B68E6
:102B0C00DB6903F00303002B03D0786800F04CF969
:102B1C0005E0786800F03FF9786800F04EF97B68C2
:102B2C0000221A77BB6803F01003002B20D0FB683F
:102B3C0003F01003002B1BD07B681B686FF0100296
:102B4C001A617B6808221A777B681B68DB6903F4BF
:102B5C004073002B03D0786800F026F905E0786804
:102B6C0000F019F9786800F028F97B6800221A77D0
:102B7C00BB6803F00103002B0CD0FB6803F00103CE
:102B8C00002B07D07B681B686FF001021A61786814
:102B9C00FEF754FDBB6803F08003002B0CD0FB68E0
:102BAC0003F08003002B07D07B681B686FF080025A
:102BBC001A61786800F06FFABB6803F04003002BD1
:102BCC000CD0FB6803F04003002B07D07B681B681C
:102BDC006FF040021A61786800F0F8F8BB6803F0F7
:102BEC002003002B0CD0FB6803F02003002B07D034
:102BFC007B681B686FF020021A61786800F042FA5B
:102C0C0000BF1037BD4680BD80B584B000AF786082
:102C1C0039600023FB737B6893F83C30012B01D1A6
:102C2C000223B4E07B68012283F83C207B680222FB
:102C3C0083F83D207B681B689B68BB60BB6823F0F6
:102C4C007703BB60BB6823F47F43BB607B681B6866
:102C5C00BA689A603B681B68B3F5005F3ED0B3F569
:102C6C00005F00F28780B3F5805F00F08680B3F5DB
:102C7C00805F7FD8702B1AD0702B7BD8602B50D0F4
:102C8C00602B77D8502B3CD0502B73D8402B58D07E
:102C9C00402B6FD8302B64D0302B6BD8202B60D0CE
:102CAC00202B67D8002B5CD0102B5AD062E07B68AD
:102CBC0018683B6899683B685A683B68DB6800F0A9
:102CCC006AF97B681B689B68BB60BB6843F0770341
:102CDC00BB607B681B68BA689A604FE07B681868B9
:102CEC003B6899683B685A683B68DB6800F053F9AD
:102CFC007B681B689A687B681B6842F480429A6008
:102D0C003CE07B6818683B6859683B68DB681A468E
:102D1C0000F0CAF87B681B685021184600F021F9B6
:102D2C002CE07B6818683B6859683B68DB681A467E
:102D3C0000F0E8F87B681B686021184600F011F978
:102D4C001CE07B6818683B6859683B68DB681A466E
:102D5C0000F0AAF87B681B684021184600F001F9C6
:102D6C000CE07B681A683B681B681946104600F03B
:102D7C00F8F803E00123FB7300E000BF7B6801223D
:102D8C0083F83D207B68002283F83C20FB7B1846AF
:102D9C001037BD4680BD80B483B000AF786000BFF3
:102DAC000C37BD4680BC704780B483B000AF7860F0
:102DBC0000BF0C37BD4680BC704780B483B000AFF9
:102DCC00786000BF0C37BD4680BC704780B483B0C0
:102DDC0000AF786000BF0C37BD4680BC7047000068
:102DEC0080B485B000AF786039607B681B68FB608D
:102DFC007B682B4A934207D07B68B3F1804F03D09A
:102E0C007B68284A934208D1FB6823F07003FB606F
:102E1C003B685B68FA681343FB607B68204A93420B
:102E2C0007D07B68B3F1804F03D07B681D4A934277
:102E3C0008D1FB6823F44073FB603B68DB68FA68DD
:102E4C001343FB60FB6823F080023B685B69134310
:102E5C00FB607B68FA681A603B689A687B68DA6288
:102E6C003B681A687B689A627B680D4A934203D16F
:102E7C003B681A697B681A637B6801225A617B681C
:102E8C001B6903F00103002B05D07B681B6923F041
:102E9C0001027B681A6100BF1437BD4680BC7047C5
:102EAC00002C01400004004080B487B000AFF860F3
:102EBC00B9607A60FB681B6A7B61FB681B6A23F054
:102ECC000102FB681A62FB689B693B613B6923F05A
:102EDC00F0033B617B681B013A6913433B617B69DF
:102EEC0023F00A037B617A69BB6813437B61FB683F
:102EFC003A699A61FB687A691A6200BF1C37BD4651
:102F0C0080BC704780B487B000AFF860B9607A605D
:102F1C00FB681B6A7B61FB681B6A23F01002FB6871
:102F2C001A62FB689B693B613B6923F470433B610C
:102F3C007B681B033A6913433B617B6923F0A00355
:102F4C007B61BB681B017A6913437B61FB683A693F
:102F5C009A61FB687A691A6200BF1C37BD4680BC57
:102F6C00704780B485B000AF786039607B689B682F
:102F7C00FB60FB6823F07003FB603A68FB6813434B
:102F8C0043F00703FB607B68FA689A6000BF143754
:102F9C00BD4680BC704780B487B000AFF860B960A4
:102FAC007A603B60FB689B687B617B6923F47F43A1
:102FBC007B613B681A027B681A43BB6813437A69CE
:102FCC0013437B61FB687A699A6000BF1C37BD466E
:102FDC0080BC704780B485B000AF786039607B6886
:102FEC0093F83C30012B01D1022341E07B68012294
:102FFC0083F83C207B68022283F83D207B681B68A9
:10300C005B68FB607B681B689B68BB60FB6823F09C
:10301C007003FB603B681B68FA681343FB607B68BA
:10302C001B68FA685A607B681B68144A934209D083
:10303C007B681B68B3F1804F04D07B681B68104A17
:10304C0093420CD1BB6823F08003BB603B685B6888
:10305C00BA681343BB607B681B68BA689A607B686C
:10306C00012283F83D207B68002283F83C2000235A
:10307C0018461437BD4680BC704700BF002C014079
:10308C000004004080B483B000AF786000BF0C3700
:10309C00BD4680BC704780B483B000AF786000BF81
:1030AC000C37BD4680BC704770B500260C4D0D4CDE
:1030BC00641BA410A64209D100F022F800260A4D88
:1030CC000A4C641BA410A64205D170BD55F8043BF4
:1030DC0098470136EEE755F8043B98470136F2E77E
:1030EC004831000848310008483100084C310008CC
:1030FC0003460244934200D1704703F8011BF9E7E1
:10310C00F8B500BFF8BC08BC9E467047F8B500BFC8
:08311C00F8BC08BC9E46704798
:103124000000000000000000010203040607080973
:1031340002030405060708090A0B0C0D0E0F1010F4
:043144000102000084
:043148003101000849
:04314C000D01000869
:10315000000C0140000C0140000C01400100020085
:103160000400000004000000030000000200000052
:10317000050000000C00000000127A0010000000A2
:04318000010000004A
:0400000508001A9540
:00000001FF
